{
	"contracts/FundWallet.sol": {
		"FundWallet": {
			"abi": [
				{
					"anonymous": false,
					"inputs": [
						{
							"indexed": true,
							"internalType": "address",
							"name": "_forWho",
							"type": "address"
						},
						{
							"indexed": true,
							"internalType": "address",
							"name": "_byWhom",
							"type": "address"
						},
						{
							"indexed": false,
							"internalType": "uint256",
							"name": "_oldAmount",
							"type": "uint256"
						},
						{
							"indexed": false,
							"internalType": "uint256",
							"name": "_newAmount",
							"type": "uint256"
						}
					],
					"name": "AllowanceChanged",
					"type": "event"
				},
				{
					"anonymous": false,
					"inputs": [
						{
							"indexed": true,
							"internalType": "address",
							"name": "_from",
							"type": "address"
						},
						{
							"indexed": false,
							"internalType": "uint256",
							"name": "_amount",
							"type": "uint256"
						}
					],
					"name": "MoneyReceive",
					"type": "event"
				},
				{
					"anonymous": false,
					"inputs": [
						{
							"indexed": true,
							"internalType": "address",
							"name": "_to",
							"type": "address"
						},
						{
							"indexed": false,
							"internalType": "uint256",
							"name": "_amount",
							"type": "uint256"
						}
					],
					"name": "MoneySent",
					"type": "event"
				},
				{
					"anonymous": false,
					"inputs": [
						{
							"indexed": true,
							"internalType": "address",
							"name": "previousOwner",
							"type": "address"
						},
						{
							"indexed": true,
							"internalType": "address",
							"name": "newOwner",
							"type": "address"
						}
					],
					"name": "OwnershipTransferred",
					"type": "event"
				},
				{
					"inputs": [
						{
							"internalType": "address",
							"name": "_who",
							"type": "address"
						},
						{
							"internalType": "uint256",
							"name": "_amount",
							"type": "uint256"
						}
					],
					"name": "addAllowance",
					"outputs": [],
					"stateMutability": "nonpayable",
					"type": "function"
				},
				{
					"inputs": [
						{
							"internalType": "address",
							"name": "",
							"type": "address"
						}
					],
					"name": "allowance",
					"outputs": [
						{
							"internalType": "uint256",
							"name": "",
							"type": "uint256"
						}
					],
					"stateMutability": "view",
					"type": "function"
				},
				{
					"inputs": [],
					"name": "owner",
					"outputs": [
						{
							"internalType": "address",
							"name": "",
							"type": "address"
						}
					],
					"stateMutability": "view",
					"type": "function"
				},
				{
					"inputs": [],
					"name": "renounceOwnership",
					"outputs": [],
					"stateMutability": "view",
					"type": "function"
				},
				{
					"inputs": [
						{
							"internalType": "address",
							"name": "newOwner",
							"type": "address"
						}
					],
					"name": "transferOwnership",
					"outputs": [],
					"stateMutability": "nonpayable",
					"type": "function"
				},
				{
					"inputs": [
						{
							"internalType": "address payable",
							"name": "_to",
							"type": "address"
						},
						{
							"internalType": "uint256",
							"name": "_amount",
							"type": "uint256"
						}
					],
					"name": "withdrawMoney",
					"outputs": [],
					"stateMutability": "nonpayable",
					"type": "function"
				},
				{
					"stateMutability": "payable",
					"type": "receive"
				}
			],
			"devdoc": {
				"kind": "dev",
				"methods": {
					"owner()": {
						"details": "Returns the address of the current owner."
					},
					"renounceOwnership()": {
						"details": "Leaves the contract without owner. It will not be possible to call `onlyOwner` functions anymore. Can only be called by the current owner. NOTE: Renouncing ownership will leave the contract without an owner, thereby removing any functionality that is only available to the owner."
					},
					"transferOwnership(address)": {
						"details": "Transfers ownership of the contract to a new account (`newOwner`). Can only be called by the current owner."
					}
				},
				"version": 1
			},
			"evm": {
				"assembly": "    /* \"contracts/FundWallet.sol\":87:675  contract FundWallet is Allowance{\r... */\n  mstore(0x40, 0x80)\n  callvalue\n  dup1\n  iszero\n  tag_1\n  jumpi\n  0x00\n  dup1\n  revert\ntag_1:\n  pop\n    /* \"https://github.com/OpenZeppelin/openzeppelin-contracts/blob/master/contracts/access/Ownable.sol\":936:968  _transferOwnership(_msgSender()) */\n  tag_4\n    /* \"https://github.com/OpenZeppelin/openzeppelin-contracts/blob/master/contracts/access/Ownable.sol\":955:967  _msgSender() */\n  tag_5\n    /* \"https://github.com/OpenZeppelin/openzeppelin-contracts/blob/master/contracts/access/Ownable.sol\":955:965  _msgSender */\n  shl(0x20, tag_6)\n    /* \"https://github.com/OpenZeppelin/openzeppelin-contracts/blob/master/contracts/access/Ownable.sol\":955:967  _msgSender() */\n  0x20\n  shr\n  jump\t// in\ntag_5:\n    /* \"https://github.com/OpenZeppelin/openzeppelin-contracts/blob/master/contracts/access/Ownable.sol\":936:954  _transferOwnership */\n  shl(0x20, tag_7)\n    /* \"https://github.com/OpenZeppelin/openzeppelin-contracts/blob/master/contracts/access/Ownable.sol\":936:968  _transferOwnership(_msgSender()) */\n  0x20\n  shr\n  jump\t// in\ntag_4:\n    /* \"contracts/FundWallet.sol\":87:675  contract FundWallet is Allowance{\r... */\n  jump(tag_8)\n    /* \"https://github.com/OpenZeppelin/openzeppelin-contracts/blob/master/contracts/utils/Context.sol\":640:736  function _msgSender() internal view virtual returns (address) {... */\ntag_6:\n    /* \"https://github.com/OpenZeppelin/openzeppelin-contracts/blob/master/contracts/utils/Context.sol\":693:700  address */\n  0x00\n    /* \"https://github.com/OpenZeppelin/openzeppelin-contracts/blob/master/contracts/utils/Context.sol\":719:729  msg.sender */\n  caller\n    /* \"https://github.com/OpenZeppelin/openzeppelin-contracts/blob/master/contracts/utils/Context.sol\":712:729  return msg.sender */\n  swap1\n  pop\n    /* \"https://github.com/OpenZeppelin/openzeppelin-contracts/blob/master/contracts/utils/Context.sol\":640:736  function _msgSender() internal view virtual returns (address) {... */\n  swap1\n  jump\t// out\n    /* \"https://github.com/OpenZeppelin/openzeppelin-contracts/blob/master/contracts/access/Ownable.sol\":2433:2620  function _transferOwnership(address newOwner) internal virtual {... */\ntag_7:\n    /* \"https://github.com/OpenZeppelin/openzeppelin-contracts/blob/master/contracts/access/Ownable.sol\":2506:2522  address oldOwner */\n  0x00\n    /* \"https://github.com/OpenZeppelin/openzeppelin-contracts/blob/master/contracts/access/Ownable.sol\":2525:2531  _owner */\n  dup1\n  0x00\n  swap1\n  sload\n  swap1\n  0x0100\n  exp\n  swap1\n  div\n  0xffffffffffffffffffffffffffffffffffffffff\n  and\n    /* \"https://github.com/OpenZeppelin/openzeppelin-contracts/blob/master/contracts/access/Ownable.sol\":2506:2531  address oldOwner = _owner */\n  swap1\n  pop\n    /* \"https://github.com/OpenZeppelin/openzeppelin-contracts/blob/master/contracts/access/Ownable.sol\":2550:2558  newOwner */\n  dup2\n    /* \"https://github.com/OpenZeppelin/openzeppelin-contracts/blob/master/contracts/access/Ownable.sol\":2541:2547  _owner */\n  0x00\n  dup1\n    /* \"https://github.com/OpenZeppelin/openzeppelin-contracts/blob/master/contracts/access/Ownable.sol\":2541:2558  _owner = newOwner */\n  0x0100\n  exp\n  dup2\n  sload\n  dup2\n  0xffffffffffffffffffffffffffffffffffffffff\n  mul\n  not\n  and\n  swap1\n  dup4\n  0xffffffffffffffffffffffffffffffffffffffff\n  and\n  mul\n  or\n  swap1\n  sstore\n  pop\n    /* \"https://github.com/OpenZeppelin/openzeppelin-contracts/blob/master/contracts/access/Ownable.sol\":2604:2612  newOwner */\n  dup2\n    /* \"https://github.com/OpenZeppelin/openzeppelin-contracts/blob/master/contracts/access/Ownable.sol\":2573:2613  OwnershipTransferred(oldOwner, newOwner) */\n  0xffffffffffffffffffffffffffffffffffffffff\n  and\n    /* \"https://github.com/OpenZeppelin/openzeppelin-contracts/blob/master/contracts/access/Ownable.sol\":2594:2602  oldOwner */\n  dup2\n    /* \"https://github.com/OpenZeppelin/openzeppelin-contracts/blob/master/contracts/access/Ownable.sol\":2573:2613  OwnershipTransferred(oldOwner, newOwner) */\n  0xffffffffffffffffffffffffffffffffffffffff\n  and\n  0x8be0079c531659141344cd1fd0a4f28419497f9722a3daafe3b4186f6b6457e0\n  mload(0x40)\n  mload(0x40)\n  dup1\n  swap2\n  sub\n  swap1\n  log3\n    /* \"https://github.com/OpenZeppelin/openzeppelin-contracts/blob/master/contracts/access/Ownable.sol\":2433:2620  function _transferOwnership(address newOwner) internal virtual {... */\n  pop\n  pop\n  jump\t// out\n    /* \"contracts/FundWallet.sol\":87:675  contract FundWallet is Allowance{\r... */\ntag_8:\n  dataSize(sub_0)\n  dup1\n  dataOffset(sub_0)\n  0x00\n  codecopy\n  0x00\n  return\nstop\n\nsub_0: assembly {\n        /* \"contracts/FundWallet.sol\":87:675  contract FundWallet is Allowance{\r... */\n      mstore(0x40, 0x80)\n      jumpi(tag_1, lt(calldatasize, 0x04))\n      shr(0xe0, calldataload(0x00))\n      dup1\n      0x3e5beab9\n      eq\n      tag_3\n      jumpi\n      dup1\n      0x715018a6\n      eq\n      tag_4\n      jumpi\n      dup1\n      0x8da5cb5b\n      eq\n      tag_5\n      jumpi\n      dup1\n      0xf274c897\n      eq\n      tag_6\n      jumpi\n      dup1\n      0xf2fde38b\n      eq\n      tag_7\n      jumpi\n      dup1\n      0xf3c40c4b\n      eq\n      tag_8\n      jumpi\n      jump(tag_2)\n    tag_1:\n      jumpi(tag_2, calldatasize)\n        /* \"contracts/FundWallet.sol\":642:652  msg.sender */\n      caller\n        /* \"contracts/FundWallet.sol\":629:664  MoneyReceive(msg.sender, msg.value) */\n      0xffffffffffffffffffffffffffffffffffffffff\n      and\n      0x65c519e05f2e03178f5e6e20d883f3d2da5a0f8c84a1a31e57f54f64cd60ea5a\n        /* \"contracts/FundWallet.sol\":654:663  msg.value */\n      callvalue\n        /* \"contracts/FundWallet.sol\":629:664  MoneyReceive(msg.sender, msg.value) */\n      mload(0x40)\n      tag_11\n      swap2\n      swap1\n      tag_12\n      jump\t// in\n    tag_11:\n      mload(0x40)\n      dup1\n      swap2\n      sub\n      swap1\n      log2\n        /* \"contracts/FundWallet.sol\":87:675  contract FundWallet is Allowance{\r... */\n      stop\n    tag_2:\n      0x00\n      dup1\n      revert\n        /* \"contracts/Allowance.sol\":459:500  mapping(address => uint) public allowance */\n    tag_3:\n      callvalue\n      dup1\n      iszero\n      tag_13\n      jumpi\n      0x00\n      dup1\n      revert\n    tag_13:\n      pop\n      tag_14\n      0x04\n      dup1\n      calldatasize\n      sub\n      dup2\n      add\n      swap1\n      tag_15\n      swap2\n      swap1\n      tag_16\n      jump\t// in\n    tag_15:\n      tag_17\n      jump\t// in\n    tag_14:\n      mload(0x40)\n      tag_18\n      swap2\n      swap1\n      tag_12\n      jump\t// in\n    tag_18:\n      mload(0x40)\n      dup1\n      swap2\n      sub\n      swap1\n      return\n        /* \"contracts/Allowance.sol\":1311:1423  function renounceOwnership() public view override onlyOwner {\r... */\n    tag_4:\n      callvalue\n      dup1\n      iszero\n      tag_19\n      jumpi\n      0x00\n      dup1\n      revert\n    tag_19:\n      pop\n      tag_20\n      tag_21\n      jump\t// in\n    tag_20:\n      stop\n        /* \"https://github.com/OpenZeppelin/openzeppelin-contracts/blob/master/contracts/access/Ownable.sol\":1201:1286  function owner() public view virtual returns (address) {... */\n    tag_5:\n      callvalue\n      dup1\n      iszero\n      tag_22\n      jumpi\n      0x00\n      dup1\n      revert\n    tag_22:\n      pop\n      tag_23\n      tag_24\n      jump\t// in\n    tag_23:\n      mload(0x40)\n      tag_25\n      swap2\n      swap1\n      tag_26\n      jump\t// in\n    tag_25:\n      mload(0x40)\n      dup1\n      swap2\n      sub\n      swap1\n      return\n        /* \"contracts/FundWallet.sol\":245:506  function withdrawMoney(address payable _to, uint _amount) public ownerOrWhoIsAllowed(_amount) {\r... */\n    tag_6:\n      callvalue\n      dup1\n      iszero\n      tag_27\n      jumpi\n      0x00\n      dup1\n      revert\n    tag_27:\n      pop\n      tag_28\n      0x04\n      dup1\n      calldatasize\n      sub\n      dup2\n      add\n      swap1\n      tag_29\n      swap2\n      swap1\n      tag_30\n      jump\t// in\n    tag_29:\n      tag_31\n      jump\t// in\n    tag_28:\n      stop\n        /* \"https://github.com/OpenZeppelin/openzeppelin-contracts/blob/master/contracts/access/Ownable.sol\":2081:2279  function transferOwnership(address newOwner) public virtual onlyOwner {... */\n    tag_7:\n      callvalue\n      dup1\n      iszero\n      tag_32\n      jumpi\n      0x00\n      dup1\n      revert\n    tag_32:\n      pop\n      tag_33\n      0x04\n      dup1\n      calldatasize\n      sub\n      dup2\n      add\n      swap1\n      tag_34\n      swap2\n      swap1\n      tag_16\n      jump\t// in\n    tag_34:\n      tag_35\n      jump\t// in\n    tag_33:\n      stop\n        /* \"contracts/Allowance.sol\":507:752  function addAllowance(address _who, uint _amount) public onlyOwner {\r... */\n    tag_8:\n      callvalue\n      dup1\n      iszero\n      tag_36\n      jumpi\n      0x00\n      dup1\n      revert\n    tag_36:\n      pop\n      tag_37\n      0x04\n      dup1\n      calldatasize\n      sub\n      dup2\n      add\n      swap1\n      tag_38\n      swap2\n      swap1\n      tag_39\n      jump\t// in\n    tag_38:\n      tag_40\n      jump\t// in\n    tag_37:\n      stop\n        /* \"contracts/Allowance.sol\":459:500  mapping(address => uint) public allowance */\n    tag_17:\n      mstore(0x20, 0x01)\n      dup1\n      0x00\n      mstore\n      keccak256(0x00, 0x40)\n      0x00\n      swap2\n      pop\n      swap1\n      pop\n      sload\n      dup2\n      jump\t// out\n        /* \"contracts/Allowance.sol\":1311:1423  function renounceOwnership() public view override onlyOwner {\r... */\n    tag_21:\n        /* \"https://github.com/OpenZeppelin/openzeppelin-contracts/blob/master/contracts/access/Ownable.sol\":1094:1107  _checkOwner() */\n      tag_42\n        /* \"https://github.com/OpenZeppelin/openzeppelin-contracts/blob/master/contracts/access/Ownable.sol\":1094:1105  _checkOwner */\n      tag_43\n        /* \"https://github.com/OpenZeppelin/openzeppelin-contracts/blob/master/contracts/access/Ownable.sol\":1094:1107  _checkOwner() */\n      jump\t// in\n    tag_42:\n        /* \"contracts/Allowance.sol\":1382:1415  revert(\"Can't renounceOwnership\") */\n      mload(0x40)\n      0x08c379a000000000000000000000000000000000000000000000000000000000\n      dup2\n      mstore\n      0x04\n      add\n      tag_45\n      swap1\n      tag_46\n      jump\t// in\n    tag_45:\n      mload(0x40)\n      dup1\n      swap2\n      sub\n      swap1\n      revert\n        /* \"https://github.com/OpenZeppelin/openzeppelin-contracts/blob/master/contracts/access/Ownable.sol\":1201:1286  function owner() public view virtual returns (address) {... */\n    tag_24:\n        /* \"https://github.com/OpenZeppelin/openzeppelin-contracts/blob/master/contracts/access/Ownable.sol\":1247:1254  address */\n      0x00\n        /* \"https://github.com/OpenZeppelin/openzeppelin-contracts/blob/master/contracts/access/Ownable.sol\":1273:1279  _owner */\n      dup1\n      0x00\n      swap1\n      sload\n      swap1\n      0x0100\n      exp\n      swap1\n      div\n      0xffffffffffffffffffffffffffffffffffffffff\n      and\n        /* \"https://github.com/OpenZeppelin/openzeppelin-contracts/blob/master/contracts/access/Ownable.sol\":1266:1279  return _owner */\n      swap1\n      pop\n        /* \"https://github.com/OpenZeppelin/openzeppelin-contracts/blob/master/contracts/access/Ownable.sol\":1201:1286  function owner() public view virtual returns (address) {... */\n      swap1\n      jump\t// out\n        /* \"contracts/FundWallet.sol\":245:506  function withdrawMoney(address payable _to, uint _amount) public ownerOrWhoIsAllowed(_amount) {\r... */\n    tag_31:\n        /* \"contracts/FundWallet.sol\":330:337  _amount */\n      dup1\n        /* \"contracts/Allowance.sol\":919:928  isOwner() */\n      tag_49\n        /* \"contracts/Allowance.sol\":919:926  isOwner */\n      tag_50\n        /* \"contracts/Allowance.sol\":919:928  isOwner() */\n      jump\t// in\n    tag_49:\n        /* \"contracts/Allowance.sol\":919:964  isOwner() || allowance[msg.sender] >= _amount */\n      dup1\n      tag_51\n      jumpi\n      pop\n        /* \"contracts/Allowance.sol\":957:964  _amount */\n      dup1\n        /* \"contracts/Allowance.sol\":932:941  allowance */\n      0x01\n        /* \"contracts/Allowance.sol\":932:953  allowance[msg.sender] */\n      0x00\n        /* \"contracts/Allowance.sol\":942:952  msg.sender */\n      caller\n        /* \"contracts/Allowance.sol\":932:953  allowance[msg.sender] */\n      0xffffffffffffffffffffffffffffffffffffffff\n      and\n      0xffffffffffffffffffffffffffffffffffffffff\n      and\n      dup2\n      mstore\n      0x20\n      add\n      swap1\n      dup2\n      mstore\n      0x20\n      add\n      0x00\n      keccak256\n      sload\n        /* \"contracts/Allowance.sol\":932:964  allowance[msg.sender] >= _amount */\n      lt\n      iszero\n        /* \"contracts/Allowance.sol\":919:964  isOwner() || allowance[msg.sender] >= _amount */\n    tag_51:\n        /* \"contracts/Allowance.sol\":911:991  require(isOwner() || allowance[msg.sender] >= _amount, \"You are not allowed!!!\") */\n      tag_52\n      jumpi\n      mload(0x40)\n      0x08c379a000000000000000000000000000000000000000000000000000000000\n      dup2\n      mstore\n      0x04\n      add\n      tag_53\n      swap1\n      tag_54\n      jump\t// in\n    tag_53:\n      mload(0x40)\n      dup1\n      swap2\n      sub\n      swap1\n      revert\n    tag_52:\n        /* \"contracts/FundWallet.sol\":355:364  isOwner() */\n      tag_56\n        /* \"contracts/FundWallet.sol\":355:362  isOwner */\n      tag_50\n        /* \"contracts/FundWallet.sol\":355:364  isOwner() */\n      jump\t// in\n    tag_56:\n        /* \"contracts/FundWallet.sol\":350:429  if (!isOwner()) {\r... */\n      tag_57\n      jumpi\n        /* \"contracts/FundWallet.sol\":381:417  reduceAllowance(msg.sender, _amount) */\n      tag_58\n        /* \"contracts/FundWallet.sol\":397:407  msg.sender */\n      caller\n        /* \"contracts/FundWallet.sol\":409:416  _amount */\n      dup4\n        /* \"contracts/FundWallet.sol\":381:396  reduceAllowance */\n      tag_59\n        /* \"contracts/FundWallet.sol\":381:417  reduceAllowance(msg.sender, _amount) */\n      jump\t// in\n    tag_58:\n        /* \"contracts/FundWallet.sol\":350:429  if (!isOwner()) {\r... */\n    tag_57:\n        /* \"contracts/FundWallet.sol\":454:457  _to */\n      dup3\n        /* \"contracts/FundWallet.sol\":444:466  MoneySent(_to,_amount) */\n      0xffffffffffffffffffffffffffffffffffffffff\n      and\n      0x7f51d406915971d4ac1c91af96be5187ea6ab64753785aad519a533def80a41e\n        /* \"contracts/FundWallet.sol\":458:465  _amount */\n      dup4\n        /* \"contracts/FundWallet.sol\":444:466  MoneySent(_to,_amount) */\n      mload(0x40)\n      tag_60\n      swap2\n      swap1\n      tag_12\n      jump\t// in\n    tag_60:\n      mload(0x40)\n      dup1\n      swap2\n      sub\n      swap1\n      log2\n        /* \"contracts/FundWallet.sol\":477:480  _to */\n      dup3\n        /* \"contracts/FundWallet.sol\":477:489  _to.transfer */\n      0xffffffffffffffffffffffffffffffffffffffff\n      and\n        /* \"contracts/FundWallet.sol\":477:498  _to.transfer(_amount) */\n      0x08fc\n        /* \"contracts/FundWallet.sol\":490:497  _amount */\n      dup4\n        /* \"contracts/FundWallet.sol\":477:498  _to.transfer(_amount) */\n      swap1\n      dup2\n      iszero\n      mul\n      swap1\n      mload(0x40)\n      0x00\n      mload(0x40)\n      dup1\n      dup4\n      sub\n      dup2\n      dup6\n      dup9\n      dup9\n      call\n      swap4\n      pop\n      pop\n      pop\n      pop\n      iszero\n      dup1\n      iszero\n      tag_62\n      jumpi\n      returndatasize\n      0x00\n      dup1\n      returndatacopy\n      revert(0x00, returndatasize)\n    tag_62:\n      pop\n        /* \"contracts/FundWallet.sol\":245:506  function withdrawMoney(address payable _to, uint _amount) public ownerOrWhoIsAllowed(_amount) {\r... */\n      pop\n      pop\n      pop\n      jump\t// out\n        /* \"https://github.com/OpenZeppelin/openzeppelin-contracts/blob/master/contracts/access/Ownable.sol\":2081:2279  function transferOwnership(address newOwner) public virtual onlyOwner {... */\n    tag_35:\n        /* \"https://github.com/OpenZeppelin/openzeppelin-contracts/blob/master/contracts/access/Ownable.sol\":1094:1107  _checkOwner() */\n      tag_64\n        /* \"https://github.com/OpenZeppelin/openzeppelin-contracts/blob/master/contracts/access/Ownable.sol\":1094:1105  _checkOwner */\n      tag_43\n        /* \"https://github.com/OpenZeppelin/openzeppelin-contracts/blob/master/contracts/access/Ownable.sol\":1094:1107  _checkOwner() */\n      jump\t// in\n    tag_64:\n        /* \"https://github.com/OpenZeppelin/openzeppelin-contracts/blob/master/contracts/access/Ownable.sol\":2189:2190  0 */\n      0x00\n        /* \"https://github.com/OpenZeppelin/openzeppelin-contracts/blob/master/contracts/access/Ownable.sol\":2169:2191  newOwner != address(0) */\n      0xffffffffffffffffffffffffffffffffffffffff\n      and\n        /* \"https://github.com/OpenZeppelin/openzeppelin-contracts/blob/master/contracts/access/Ownable.sol\":2169:2177  newOwner */\n      dup2\n        /* \"https://github.com/OpenZeppelin/openzeppelin-contracts/blob/master/contracts/access/Ownable.sol\":2169:2191  newOwner != address(0) */\n      0xffffffffffffffffffffffffffffffffffffffff\n      and\n      eq\n      iszero\n        /* \"https://github.com/OpenZeppelin/openzeppelin-contracts/blob/master/contracts/access/Ownable.sol\":2161:2234  require(newOwner != address(0), \"Ownable: new owner is the zero address\") */\n      tag_66\n      jumpi\n      mload(0x40)\n      0x08c379a000000000000000000000000000000000000000000000000000000000\n      dup2\n      mstore\n      0x04\n      add\n      tag_67\n      swap1\n      tag_68\n      jump\t// in\n    tag_67:\n      mload(0x40)\n      dup1\n      swap2\n      sub\n      swap1\n      revert\n    tag_66:\n        /* \"https://github.com/OpenZeppelin/openzeppelin-contracts/blob/master/contracts/access/Ownable.sol\":2244:2272  _transferOwnership(newOwner) */\n      tag_69\n        /* \"https://github.com/OpenZeppelin/openzeppelin-contracts/blob/master/contracts/access/Ownable.sol\":2263:2271  newOwner */\n      dup2\n        /* \"https://github.com/OpenZeppelin/openzeppelin-contracts/blob/master/contracts/access/Ownable.sol\":2244:2262  _transferOwnership */\n      tag_70\n        /* \"https://github.com/OpenZeppelin/openzeppelin-contracts/blob/master/contracts/access/Ownable.sol\":2244:2272  _transferOwnership(newOwner) */\n      jump\t// in\n    tag_69:\n        /* \"https://github.com/OpenZeppelin/openzeppelin-contracts/blob/master/contracts/access/Ownable.sol\":2081:2279  function transferOwnership(address newOwner) public virtual onlyOwner {... */\n      pop\n      jump\t// out\n        /* \"contracts/Allowance.sol\":507:752  function addAllowance(address _who, uint _amount) public onlyOwner {\r... */\n    tag_40:\n        /* \"https://github.com/OpenZeppelin/openzeppelin-contracts/blob/master/contracts/access/Ownable.sol\":1094:1107  _checkOwner() */\n      tag_72\n        /* \"https://github.com/OpenZeppelin/openzeppelin-contracts/blob/master/contracts/access/Ownable.sol\":1094:1105  _checkOwner */\n      tag_43\n        /* \"https://github.com/OpenZeppelin/openzeppelin-contracts/blob/master/contracts/access/Ownable.sol\":1094:1107  _checkOwner() */\n      jump\t// in\n    tag_72:\n        /* \"contracts/Allowance.sol\":612:622  msg.sender */\n      caller\n        /* \"contracts/Allowance.sol\":590:647  AllowanceChanged(_who,msg.sender,allowance[_who],_amount) */\n      0xffffffffffffffffffffffffffffffffffffffff\n      and\n        /* \"contracts/Allowance.sol\":607:611  _who */\n      dup3\n        /* \"contracts/Allowance.sol\":590:647  AllowanceChanged(_who,msg.sender,allowance[_who],_amount) */\n      0xffffffffffffffffffffffffffffffffffffffff\n      and\n      0x3691d1a86d99355e52b689ca70a7bdf6d80763237a6aa06e5fa43964eac7244b\n        /* \"contracts/Allowance.sol\":623:632  allowance */\n      0x01\n        /* \"contracts/Allowance.sol\":623:638  allowance[_who] */\n      0x00\n        /* \"contracts/Allowance.sol\":633:637  _who */\n      dup7\n        /* \"contracts/Allowance.sol\":623:638  allowance[_who] */\n      0xffffffffffffffffffffffffffffffffffffffff\n      and\n      0xffffffffffffffffffffffffffffffffffffffff\n      and\n      dup2\n      mstore\n      0x20\n      add\n      swap1\n      dup2\n      mstore\n      0x20\n      add\n      0x00\n      keccak256\n      sload\n        /* \"contracts/Allowance.sol\":639:646  _amount */\n      dup5\n        /* \"contracts/Allowance.sol\":590:647  AllowanceChanged(_who,msg.sender,allowance[_who],_amount) */\n      mload(0x40)\n      tag_74\n      swap3\n      swap2\n      swap1\n      tag_75\n      jump\t// in\n    tag_74:\n      mload(0x40)\n      dup1\n      swap2\n      sub\n      swap1\n      log3\n        /* \"contracts/Allowance.sol\":676:704  allowance[_who].add(_amount) */\n      tag_76\n        /* \"contracts/Allowance.sol\":696:703  _amount */\n      dup2\n        /* \"contracts/Allowance.sol\":676:685  allowance */\n      0x01\n        /* \"contracts/Allowance.sol\":676:691  allowance[_who] */\n      0x00\n        /* \"contracts/Allowance.sol\":686:690  _who */\n      dup6\n        /* \"contracts/Allowance.sol\":676:691  allowance[_who] */\n      0xffffffffffffffffffffffffffffffffffffffff\n      and\n      0xffffffffffffffffffffffffffffffffffffffff\n      and\n      dup2\n      mstore\n      0x20\n      add\n      swap1\n      dup2\n      mstore\n      0x20\n      add\n      0x00\n      keccak256\n      sload\n        /* \"contracts/Allowance.sol\":676:695  allowance[_who].add */\n      tag_77\n      swap1\n        /* \"contracts/Allowance.sol\":676:704  allowance[_who].add(_amount) */\n      swap2\n      swap1\n      0xffffffff\n      and\n      jump\t// in\n    tag_76:\n        /* \"contracts/Allowance.sol\":658:667  allowance */\n      0x01\n        /* \"contracts/Allowance.sol\":658:673  allowance[_who] */\n      0x00\n        /* \"contracts/Allowance.sol\":668:672  _who */\n      dup5\n        /* \"contracts/Allowance.sol\":658:673  allowance[_who] */\n      0xffffffffffffffffffffffffffffffffffffffff\n      and\n      0xffffffffffffffffffffffffffffffffffffffff\n      and\n      dup2\n      mstore\n      0x20\n      add\n      swap1\n      dup2\n      mstore\n      0x20\n      add\n      0x00\n      keccak256\n        /* \"contracts/Allowance.sol\":658:704  allowance[_who] = allowance[_who].add(_amount) */\n      dup2\n      swap1\n      sstore\n      pop\n        /* \"contracts/Allowance.sol\":507:752  function addAllowance(address _who, uint _amount) public onlyOwner {\r... */\n      pop\n      pop\n      jump\t// out\n        /* \"https://github.com/OpenZeppelin/openzeppelin-contracts/blob/master/contracts/access/Ownable.sol\":1359:1489  function _checkOwner() internal view virtual {... */\n    tag_43:\n        /* \"https://github.com/OpenZeppelin/openzeppelin-contracts/blob/master/contracts/access/Ownable.sol\":1433:1445  _msgSender() */\n      tag_79\n        /* \"https://github.com/OpenZeppelin/openzeppelin-contracts/blob/master/contracts/access/Ownable.sol\":1433:1443  _msgSender */\n      tag_80\n        /* \"https://github.com/OpenZeppelin/openzeppelin-contracts/blob/master/contracts/access/Ownable.sol\":1433:1445  _msgSender() */\n      jump\t// in\n    tag_79:\n        /* \"https://github.com/OpenZeppelin/openzeppelin-contracts/blob/master/contracts/access/Ownable.sol\":1422:1445  owner() == _msgSender() */\n      0xffffffffffffffffffffffffffffffffffffffff\n      and\n        /* \"https://github.com/OpenZeppelin/openzeppelin-contracts/blob/master/contracts/access/Ownable.sol\":1422:1429  owner() */\n      tag_81\n        /* \"https://github.com/OpenZeppelin/openzeppelin-contracts/blob/master/contracts/access/Ownable.sol\":1422:1427  owner */\n      tag_24\n        /* \"https://github.com/OpenZeppelin/openzeppelin-contracts/blob/master/contracts/access/Ownable.sol\":1422:1429  owner() */\n      jump\t// in\n    tag_81:\n        /* \"https://github.com/OpenZeppelin/openzeppelin-contracts/blob/master/contracts/access/Ownable.sol\":1422:1445  owner() == _msgSender() */\n      0xffffffffffffffffffffffffffffffffffffffff\n      and\n      eq\n        /* \"https://github.com/OpenZeppelin/openzeppelin-contracts/blob/master/contracts/access/Ownable.sol\":1414:1482  require(owner() == _msgSender(), \"Ownable: caller is not the owner\") */\n      tag_82\n      jumpi\n      mload(0x40)\n      0x08c379a000000000000000000000000000000000000000000000000000000000\n      dup2\n      mstore\n      0x04\n      add\n      tag_83\n      swap1\n      tag_84\n      jump\t// in\n    tag_83:\n      mload(0x40)\n      dup1\n      swap2\n      sub\n      swap1\n      revert\n    tag_82:\n        /* \"https://github.com/OpenZeppelin/openzeppelin-contracts/blob/master/contracts/access/Ownable.sol\":1359:1489  function _checkOwner() internal view virtual {... */\n      jump\t// out\n        /* \"contracts/Allowance.sol\":758:851  function isOwner() internal view returns(bool) {\r... */\n    tag_50:\n        /* \"contracts/Allowance.sol\":799:803  bool */\n      0x00\n        /* \"contracts/Allowance.sol\":833:843  msg.sender */\n      caller\n        /* \"contracts/Allowance.sol\":823:843  owner()== msg.sender */\n      0xffffffffffffffffffffffffffffffffffffffff\n      and\n        /* \"contracts/Allowance.sol\":823:830  owner() */\n      tag_86\n        /* \"contracts/Allowance.sol\":823:828  owner */\n      tag_24\n        /* \"contracts/Allowance.sol\":823:830  owner() */\n      jump\t// in\n    tag_86:\n        /* \"contracts/Allowance.sol\":823:843  owner()== msg.sender */\n      0xffffffffffffffffffffffffffffffffffffffff\n      and\n      eq\n        /* \"contracts/Allowance.sol\":816:843  return owner()== msg.sender */\n      swap1\n      pop\n        /* \"contracts/Allowance.sol\":758:851  function isOwner() internal view returns(bool) {\r... */\n      swap1\n      jump\t// out\n        /* \"contracts/Allowance.sol\":1017:1305  function reduceAllowance(address _who, uint _amount) internal ownerOrWhoIsAllowed(_amount) {\r... */\n    tag_59:\n        /* \"contracts/Allowance.sol\":1099:1106  _amount */\n      dup1\n        /* \"contracts/Allowance.sol\":919:928  isOwner() */\n      tag_88\n        /* \"contracts/Allowance.sol\":919:926  isOwner */\n      tag_50\n        /* \"contracts/Allowance.sol\":919:928  isOwner() */\n      jump\t// in\n    tag_88:\n        /* \"contracts/Allowance.sol\":919:964  isOwner() || allowance[msg.sender] >= _amount */\n      dup1\n      tag_89\n      jumpi\n      pop\n        /* \"contracts/Allowance.sol\":957:964  _amount */\n      dup1\n        /* \"contracts/Allowance.sol\":932:941  allowance */\n      0x01\n        /* \"contracts/Allowance.sol\":932:953  allowance[msg.sender] */\n      0x00\n        /* \"contracts/Allowance.sol\":942:952  msg.sender */\n      caller\n        /* \"contracts/Allowance.sol\":932:953  allowance[msg.sender] */\n      0xffffffffffffffffffffffffffffffffffffffff\n      and\n      0xffffffffffffffffffffffffffffffffffffffff\n      and\n      dup2\n      mstore\n      0x20\n      add\n      swap1\n      dup2\n      mstore\n      0x20\n      add\n      0x00\n      keccak256\n      sload\n        /* \"contracts/Allowance.sol\":932:964  allowance[msg.sender] >= _amount */\n      lt\n      iszero\n        /* \"contracts/Allowance.sol\":919:964  isOwner() || allowance[msg.sender] >= _amount */\n    tag_89:\n        /* \"contracts/Allowance.sol\":911:991  require(isOwner() || allowance[msg.sender] >= _amount, \"You are not allowed!!!\") */\n      tag_90\n      jumpi\n      mload(0x40)\n      0x08c379a000000000000000000000000000000000000000000000000000000000\n      dup2\n      mstore\n      0x04\n      add\n      tag_91\n      swap1\n      tag_54\n      jump\t// in\n    tag_91:\n      mload(0x40)\n      dup1\n      swap2\n      sub\n      swap1\n      revert\n    tag_90:\n        /* \"contracts/Allowance.sol\":1146:1156  msg.sender */\n      caller\n        /* \"contracts/Allowance.sol\":1124:1199  AllowanceChanged(_who,msg.sender,allowance[_who],allowance[_who] - _amount) */\n      0xffffffffffffffffffffffffffffffffffffffff\n      and\n        /* \"contracts/Allowance.sol\":1141:1145  _who */\n      dup4\n        /* \"contracts/Allowance.sol\":1124:1199  AllowanceChanged(_who,msg.sender,allowance[_who],allowance[_who] - _amount) */\n      0xffffffffffffffffffffffffffffffffffffffff\n      and\n      0x3691d1a86d99355e52b689ca70a7bdf6d80763237a6aa06e5fa43964eac7244b\n        /* \"contracts/Allowance.sol\":1157:1166  allowance */\n      0x01\n        /* \"contracts/Allowance.sol\":1157:1172  allowance[_who] */\n      0x00\n        /* \"contracts/Allowance.sol\":1167:1171  _who */\n      dup8\n        /* \"contracts/Allowance.sol\":1157:1172  allowance[_who] */\n      0xffffffffffffffffffffffffffffffffffffffff\n      and\n      0xffffffffffffffffffffffffffffffffffffffff\n      and\n      dup2\n      mstore\n      0x20\n      add\n      swap1\n      dup2\n      mstore\n      0x20\n      add\n      0x00\n      keccak256\n      sload\n        /* \"contracts/Allowance.sol\":1191:1198  _amount */\n      dup6\n        /* \"contracts/Allowance.sol\":1173:1182  allowance */\n      0x01\n        /* \"contracts/Allowance.sol\":1173:1188  allowance[_who] */\n      0x00\n        /* \"contracts/Allowance.sol\":1183:1187  _who */\n      dup10\n        /* \"contracts/Allowance.sol\":1173:1188  allowance[_who] */\n      0xffffffffffffffffffffffffffffffffffffffff\n      and\n      0xffffffffffffffffffffffffffffffffffffffff\n      and\n      dup2\n      mstore\n      0x20\n      add\n      swap1\n      dup2\n      mstore\n      0x20\n      add\n      0x00\n      keccak256\n      sload\n        /* \"contracts/Allowance.sol\":1173:1198  allowance[_who] - _amount */\n      tag_93\n      swap2\n      swap1\n      tag_94\n      jump\t// in\n    tag_93:\n        /* \"contracts/Allowance.sol\":1124:1199  AllowanceChanged(_who,msg.sender,allowance[_who],allowance[_who] - _amount) */\n      mload(0x40)\n      tag_95\n      swap3\n      swap2\n      swap1\n      tag_75\n      jump\t// in\n    tag_95:\n      mload(0x40)\n      dup1\n      swap2\n      sub\n      swap1\n      log3\n        /* \"contracts/Allowance.sol\":1228:1256  allowance[_who].sub(_amount) */\n      tag_96\n        /* \"contracts/Allowance.sol\":1248:1255  _amount */\n      dup3\n        /* \"contracts/Allowance.sol\":1228:1237  allowance */\n      0x01\n        /* \"contracts/Allowance.sol\":1228:1243  allowance[_who] */\n      0x00\n        /* \"contracts/Allowance.sol\":1238:1242  _who */\n      dup7\n        /* \"contracts/Allowance.sol\":1228:1243  allowance[_who] */\n      0xffffffffffffffffffffffffffffffffffffffff\n      and\n      0xffffffffffffffffffffffffffffffffffffffff\n      and\n      dup2\n      mstore\n      0x20\n      add\n      swap1\n      dup2\n      mstore\n      0x20\n      add\n      0x00\n      keccak256\n      sload\n        /* \"contracts/Allowance.sol\":1228:1247  allowance[_who].sub */\n      tag_97\n      swap1\n        /* \"contracts/Allowance.sol\":1228:1256  allowance[_who].sub(_amount) */\n      swap2\n      swap1\n      0xffffffff\n      and\n      jump\t// in\n    tag_96:\n        /* \"contracts/Allowance.sol\":1210:1219  allowance */\n      0x01\n        /* \"contracts/Allowance.sol\":1210:1225  allowance[_who] */\n      0x00\n        /* \"contracts/Allowance.sol\":1220:1224  _who */\n      dup6\n        /* \"contracts/Allowance.sol\":1210:1225  allowance[_who] */\n      0xffffffffffffffffffffffffffffffffffffffff\n      and\n      0xffffffffffffffffffffffffffffffffffffffff\n      and\n      dup2\n      mstore\n      0x20\n      add\n      swap1\n      dup2\n      mstore\n      0x20\n      add\n      0x00\n      keccak256\n        /* \"contracts/Allowance.sol\":1210:1256  allowance[_who] = allowance[_who].sub(_amount) */\n      dup2\n      swap1\n      sstore\n      pop\n        /* \"contracts/Allowance.sol\":1017:1305  function reduceAllowance(address _who, uint _amount) internal ownerOrWhoIsAllowed(_amount) {\r... */\n      pop\n      pop\n      pop\n      jump\t// out\n        /* \"https://github.com/OpenZeppelin/openzeppelin-contracts/blob/master/contracts/access/Ownable.sol\":2433:2620  function _transferOwnership(address newOwner) internal virtual {... */\n    tag_70:\n        /* \"https://github.com/OpenZeppelin/openzeppelin-contracts/blob/master/contracts/access/Ownable.sol\":2506:2522  address oldOwner */\n      0x00\n        /* \"https://github.com/OpenZeppelin/openzeppelin-contracts/blob/master/contracts/access/Ownable.sol\":2525:2531  _owner */\n      dup1\n      0x00\n      swap1\n      sload\n      swap1\n      0x0100\n      exp\n      swap1\n      div\n      0xffffffffffffffffffffffffffffffffffffffff\n      and\n        /* \"https://github.com/OpenZeppelin/openzeppelin-contracts/blob/master/contracts/access/Ownable.sol\":2506:2531  address oldOwner = _owner */\n      swap1\n      pop\n        /* \"https://github.com/OpenZeppelin/openzeppelin-contracts/blob/master/contracts/access/Ownable.sol\":2550:2558  newOwner */\n      dup2\n        /* \"https://github.com/OpenZeppelin/openzeppelin-contracts/blob/master/contracts/access/Ownable.sol\":2541:2547  _owner */\n      0x00\n      dup1\n        /* \"https://github.com/OpenZeppelin/openzeppelin-contracts/blob/master/contracts/access/Ownable.sol\":2541:2558  _owner = newOwner */\n      0x0100\n      exp\n      dup2\n      sload\n      dup2\n      0xffffffffffffffffffffffffffffffffffffffff\n      mul\n      not\n      and\n      swap1\n      dup4\n      0xffffffffffffffffffffffffffffffffffffffff\n      and\n      mul\n      or\n      swap1\n      sstore\n      pop\n        /* \"https://github.com/OpenZeppelin/openzeppelin-contracts/blob/master/contracts/access/Ownable.sol\":2604:2612  newOwner */\n      dup2\n        /* \"https://github.com/OpenZeppelin/openzeppelin-contracts/blob/master/contracts/access/Ownable.sol\":2573:2613  OwnershipTransferred(oldOwner, newOwner) */\n      0xffffffffffffffffffffffffffffffffffffffff\n      and\n        /* \"https://github.com/OpenZeppelin/openzeppelin-contracts/blob/master/contracts/access/Ownable.sol\":2594:2602  oldOwner */\n      dup2\n        /* \"https://github.com/OpenZeppelin/openzeppelin-contracts/blob/master/contracts/access/Ownable.sol\":2573:2613  OwnershipTransferred(oldOwner, newOwner) */\n      0xffffffffffffffffffffffffffffffffffffffff\n      and\n      0x8be0079c531659141344cd1fd0a4f28419497f9722a3daafe3b4186f6b6457e0\n      mload(0x40)\n      mload(0x40)\n      dup1\n      swap2\n      sub\n      swap1\n      log3\n        /* \"https://github.com/OpenZeppelin/openzeppelin-contracts/blob/master/contracts/access/Ownable.sol\":2433:2620  function _transferOwnership(address newOwner) internal virtual {... */\n      pop\n      pop\n      jump\t// out\n        /* \"https://github.com/OpenZeppelin/openzeppelin-contracts/blob/master/contracts/utils/math/SafeMath.sol\":2755:2851  function add(uint256 a, uint256 b) internal pure returns (uint256) {... */\n    tag_77:\n        /* \"https://github.com/OpenZeppelin/openzeppelin-contracts/blob/master/contracts/utils/math/SafeMath.sol\":2813:2820  uint256 */\n      0x00\n        /* \"https://github.com/OpenZeppelin/openzeppelin-contracts/blob/master/contracts/utils/math/SafeMath.sol\":2843:2844  b */\n      dup2\n        /* \"https://github.com/OpenZeppelin/openzeppelin-contracts/blob/master/contracts/utils/math/SafeMath.sol\":2839:2840  a */\n      dup4\n        /* \"https://github.com/OpenZeppelin/openzeppelin-contracts/blob/master/contracts/utils/math/SafeMath.sol\":2839:2844  a + b */\n      tag_100\n      swap2\n      swap1\n      tag_101\n      jump\t// in\n    tag_100:\n        /* \"https://github.com/OpenZeppelin/openzeppelin-contracts/blob/master/contracts/utils/math/SafeMath.sol\":2832:2844  return a + b */\n      swap1\n      pop\n        /* \"https://github.com/OpenZeppelin/openzeppelin-contracts/blob/master/contracts/utils/math/SafeMath.sol\":2755:2851  function add(uint256 a, uint256 b) internal pure returns (uint256) {... */\n      swap3\n      swap2\n      pop\n      pop\n      jump\t// out\n        /* \"https://github.com/OpenZeppelin/openzeppelin-contracts/blob/master/contracts/utils/Context.sol\":640:736  function _msgSender() internal view virtual returns (address) {... */\n    tag_80:\n        /* \"https://github.com/OpenZeppelin/openzeppelin-contracts/blob/master/contracts/utils/Context.sol\":693:700  address */\n      0x00\n        /* \"https://github.com/OpenZeppelin/openzeppelin-contracts/blob/master/contracts/utils/Context.sol\":719:729  msg.sender */\n      caller\n        /* \"https://github.com/OpenZeppelin/openzeppelin-contracts/blob/master/contracts/utils/Context.sol\":712:729  return msg.sender */\n      swap1\n      pop\n        /* \"https://github.com/OpenZeppelin/openzeppelin-contracts/blob/master/contracts/utils/Context.sol\":640:736  function _msgSender() internal view virtual returns (address) {... */\n      swap1\n      jump\t// out\n        /* \"https://github.com/OpenZeppelin/openzeppelin-contracts/blob/master/contracts/utils/math/SafeMath.sol\":3122:3218  function sub(uint256 a, uint256 b) internal pure returns (uint256) {... */\n    tag_97:\n        /* \"https://github.com/OpenZeppelin/openzeppelin-contracts/blob/master/contracts/utils/math/SafeMath.sol\":3180:3187  uint256 */\n      0x00\n        /* \"https://github.com/OpenZeppelin/openzeppelin-contracts/blob/master/contracts/utils/math/SafeMath.sol\":3210:3211  b */\n      dup2\n        /* \"https://github.com/OpenZeppelin/openzeppelin-contracts/blob/master/contracts/utils/math/SafeMath.sol\":3206:3207  a */\n      dup4\n        /* \"https://github.com/OpenZeppelin/openzeppelin-contracts/blob/master/contracts/utils/math/SafeMath.sol\":3206:3211  a - b */\n      tag_104\n      swap2\n      swap1\n      tag_94\n      jump\t// in\n    tag_104:\n        /* \"https://github.com/OpenZeppelin/openzeppelin-contracts/blob/master/contracts/utils/math/SafeMath.sol\":3199:3211  return a - b */\n      swap1\n      pop\n        /* \"https://github.com/OpenZeppelin/openzeppelin-contracts/blob/master/contracts/utils/math/SafeMath.sol\":3122:3218  function sub(uint256 a, uint256 b) internal pure returns (uint256) {... */\n      swap3\n      swap2\n      pop\n      pop\n      jump\t// out\n        /* \"#utility.yul\":7:146   */\n    tag_106:\n      0x00\n        /* \"#utility.yul\":91:97   */\n      dup2\n        /* \"#utility.yul\":78:98   */\n      calldataload\n        /* \"#utility.yul\":69:98   */\n      swap1\n      pop\n        /* \"#utility.yul\":107:140   */\n      tag_108\n        /* \"#utility.yul\":134:139   */\n      dup2\n        /* \"#utility.yul\":107:140   */\n      tag_109\n      jump\t// in\n    tag_108:\n        /* \"#utility.yul\":59:146   */\n      swap3\n      swap2\n      pop\n      pop\n      jump\t// out\n        /* \"#utility.yul\":152:307   */\n    tag_110:\n      0x00\n        /* \"#utility.yul\":244:250   */\n      dup2\n        /* \"#utility.yul\":231:251   */\n      calldataload\n        /* \"#utility.yul\":222:251   */\n      swap1\n      pop\n        /* \"#utility.yul\":260:301   */\n      tag_112\n        /* \"#utility.yul\":295:300   */\n      dup2\n        /* \"#utility.yul\":260:301   */\n      tag_113\n      jump\t// in\n    tag_112:\n        /* \"#utility.yul\":212:307   */\n      swap3\n      swap2\n      pop\n      pop\n      jump\t// out\n        /* \"#utility.yul\":313:452   */\n    tag_114:\n      0x00\n        /* \"#utility.yul\":397:403   */\n      dup2\n        /* \"#utility.yul\":384:404   */\n      calldataload\n        /* \"#utility.yul\":375:404   */\n      swap1\n      pop\n        /* \"#utility.yul\":413:446   */\n      tag_116\n        /* \"#utility.yul\":440:445   */\n      dup2\n        /* \"#utility.yul\":413:446   */\n      tag_117\n      jump\t// in\n    tag_116:\n        /* \"#utility.yul\":365:452   */\n      swap3\n      swap2\n      pop\n      pop\n      jump\t// out\n        /* \"#utility.yul\":458:720   */\n    tag_16:\n      0x00\n        /* \"#utility.yul\":566:568   */\n      0x20\n        /* \"#utility.yul\":554:563   */\n      dup3\n        /* \"#utility.yul\":545:552   */\n      dup5\n        /* \"#utility.yul\":541:564   */\n      sub\n        /* \"#utility.yul\":537:569   */\n      slt\n        /* \"#utility.yul\":534:536   */\n      iszero\n      tag_119\n      jumpi\n        /* \"#utility.yul\":582:583   */\n      0x00\n        /* \"#utility.yul\":579:580   */\n      dup1\n        /* \"#utility.yul\":572:584   */\n      revert\n        /* \"#utility.yul\":534:536   */\n    tag_119:\n        /* \"#utility.yul\":625:626   */\n      0x00\n        /* \"#utility.yul\":650:703   */\n      tag_120\n        /* \"#utility.yul\":695:702   */\n      dup5\n        /* \"#utility.yul\":686:692   */\n      dup3\n        /* \"#utility.yul\":675:684   */\n      dup6\n        /* \"#utility.yul\":671:693   */\n      add\n        /* \"#utility.yul\":650:703   */\n      tag_106\n      jump\t// in\n    tag_120:\n        /* \"#utility.yul\":640:703   */\n      swap2\n      pop\n        /* \"#utility.yul\":596:713   */\n      pop\n        /* \"#utility.yul\":524:720   */\n      swap3\n      swap2\n      pop\n      pop\n      jump\t// out\n        /* \"#utility.yul\":726:1149   */\n    tag_30:\n      0x00\n      dup1\n        /* \"#utility.yul\":859:861   */\n      0x40\n        /* \"#utility.yul\":847:856   */\n      dup4\n        /* \"#utility.yul\":838:845   */\n      dup6\n        /* \"#utility.yul\":834:857   */\n      sub\n        /* \"#utility.yul\":830:862   */\n      slt\n        /* \"#utility.yul\":827:829   */\n      iszero\n      tag_122\n      jumpi\n        /* \"#utility.yul\":875:876   */\n      0x00\n        /* \"#utility.yul\":872:873   */\n      dup1\n        /* \"#utility.yul\":865:877   */\n      revert\n        /* \"#utility.yul\":827:829   */\n    tag_122:\n        /* \"#utility.yul\":918:919   */\n      0x00\n        /* \"#utility.yul\":943:1004   */\n      tag_123\n        /* \"#utility.yul\":996:1003   */\n      dup6\n        /* \"#utility.yul\":987:993   */\n      dup3\n        /* \"#utility.yul\":976:985   */\n      dup7\n        /* \"#utility.yul\":972:994   */\n      add\n        /* \"#utility.yul\":943:1004   */\n      tag_110\n      jump\t// in\n    tag_123:\n        /* \"#utility.yul\":933:1004   */\n      swap3\n      pop\n        /* \"#utility.yul\":889:1014   */\n      pop\n        /* \"#utility.yul\":1053:1055   */\n      0x20\n        /* \"#utility.yul\":1079:1132   */\n      tag_124\n        /* \"#utility.yul\":1124:1131   */\n      dup6\n        /* \"#utility.yul\":1115:1121   */\n      dup3\n        /* \"#utility.yul\":1104:1113   */\n      dup7\n        /* \"#utility.yul\":1100:1122   */\n      add\n        /* \"#utility.yul\":1079:1132   */\n      tag_114\n      jump\t// in\n    tag_124:\n        /* \"#utility.yul\":1069:1132   */\n      swap2\n      pop\n        /* \"#utility.yul\":1024:1142   */\n      pop\n        /* \"#utility.yul\":817:1149   */\n      swap3\n      pop\n      swap3\n      swap1\n      pop\n      jump\t// out\n        /* \"#utility.yul\":1155:1562   */\n    tag_39:\n      0x00\n      dup1\n        /* \"#utility.yul\":1280:1282   */\n      0x40\n        /* \"#utility.yul\":1268:1277   */\n      dup4\n        /* \"#utility.yul\":1259:1266   */\n      dup6\n        /* \"#utility.yul\":1255:1278   */\n      sub\n        /* \"#utility.yul\":1251:1283   */\n      slt\n        /* \"#utility.yul\":1248:1250   */\n      iszero\n      tag_126\n      jumpi\n        /* \"#utility.yul\":1296:1297   */\n      0x00\n        /* \"#utility.yul\":1293:1294   */\n      dup1\n        /* \"#utility.yul\":1286:1298   */\n      revert\n        /* \"#utility.yul\":1248:1250   */\n    tag_126:\n        /* \"#utility.yul\":1339:1340   */\n      0x00\n        /* \"#utility.yul\":1364:1417   */\n      tag_127\n        /* \"#utility.yul\":1409:1416   */\n      dup6\n        /* \"#utility.yul\":1400:1406   */\n      dup3\n        /* \"#utility.yul\":1389:1398   */\n      dup7\n        /* \"#utility.yul\":1385:1407   */\n      add\n        /* \"#utility.yul\":1364:1417   */\n      tag_106\n      jump\t// in\n    tag_127:\n        /* \"#utility.yul\":1354:1417   */\n      swap3\n      pop\n        /* \"#utility.yul\":1310:1427   */\n      pop\n        /* \"#utility.yul\":1466:1468   */\n      0x20\n        /* \"#utility.yul\":1492:1545   */\n      tag_128\n        /* \"#utility.yul\":1537:1544   */\n      dup6\n        /* \"#utility.yul\":1528:1534   */\n      dup3\n        /* \"#utility.yul\":1517:1526   */\n      dup7\n        /* \"#utility.yul\":1513:1535   */\n      add\n        /* \"#utility.yul\":1492:1545   */\n      tag_114\n      jump\t// in\n    tag_128:\n        /* \"#utility.yul\":1482:1545   */\n      swap2\n      pop\n        /* \"#utility.yul\":1437:1555   */\n      pop\n        /* \"#utility.yul\":1238:1562   */\n      swap3\n      pop\n      swap3\n      swap1\n      pop\n      jump\t// out\n        /* \"#utility.yul\":1568:1686   */\n    tag_129:\n        /* \"#utility.yul\":1655:1679   */\n      tag_131\n        /* \"#utility.yul\":1673:1678   */\n      dup2\n        /* \"#utility.yul\":1655:1679   */\n      tag_132\n      jump\t// in\n    tag_131:\n        /* \"#utility.yul\":1650:1653   */\n      dup3\n        /* \"#utility.yul\":1643:1680   */\n      mstore\n        /* \"#utility.yul\":1633:1686   */\n      pop\n      pop\n      jump\t// out\n        /* \"#utility.yul\":1692:2058   */\n    tag_133:\n      0x00\n        /* \"#utility.yul\":1855:1922   */\n      tag_135\n        /* \"#utility.yul\":1919:1921   */\n      0x26\n        /* \"#utility.yul\":1914:1917   */\n      dup4\n        /* \"#utility.yul\":1855:1922   */\n      tag_136\n      jump\t// in\n    tag_135:\n        /* \"#utility.yul\":1848:1922   */\n      swap2\n      pop\n        /* \"#utility.yul\":1931:2024   */\n      tag_137\n        /* \"#utility.yul\":2020:2023   */\n      dup3\n        /* \"#utility.yul\":1931:2024   */\n      tag_138\n      jump\t// in\n    tag_137:\n        /* \"#utility.yul\":2049:2051   */\n      0x40\n        /* \"#utility.yul\":2044:2047   */\n      dup3\n        /* \"#utility.yul\":2040:2052   */\n      add\n        /* \"#utility.yul\":2033:2052   */\n      swap1\n      pop\n        /* \"#utility.yul\":1838:2058   */\n      swap2\n      swap1\n      pop\n      jump\t// out\n        /* \"#utility.yul\":2064:2430   */\n    tag_139:\n      0x00\n        /* \"#utility.yul\":2227:2294   */\n      tag_141\n        /* \"#utility.yul\":2291:2293   */\n      0x17\n        /* \"#utility.yul\":2286:2289   */\n      dup4\n        /* \"#utility.yul\":2227:2294   */\n      tag_136\n      jump\t// in\n    tag_141:\n        /* \"#utility.yul\":2220:2294   */\n      swap2\n      pop\n        /* \"#utility.yul\":2303:2396   */\n      tag_142\n        /* \"#utility.yul\":2392:2395   */\n      dup3\n        /* \"#utility.yul\":2303:2396   */\n      tag_143\n      jump\t// in\n    tag_142:\n        /* \"#utility.yul\":2421:2423   */\n      0x20\n        /* \"#utility.yul\":2416:2419   */\n      dup3\n        /* \"#utility.yul\":2412:2424   */\n      add\n        /* \"#utility.yul\":2405:2424   */\n      swap1\n      pop\n        /* \"#utility.yul\":2210:2430   */\n      swap2\n      swap1\n      pop\n      jump\t// out\n        /* \"#utility.yul\":2436:2802   */\n    tag_144:\n      0x00\n        /* \"#utility.yul\":2599:2666   */\n      tag_146\n        /* \"#utility.yul\":2663:2665   */\n      0x16\n        /* \"#utility.yul\":2658:2661   */\n      dup4\n        /* \"#utility.yul\":2599:2666   */\n      tag_136\n      jump\t// in\n    tag_146:\n        /* \"#utility.yul\":2592:2666   */\n      swap2\n      pop\n        /* \"#utility.yul\":2675:2768   */\n      tag_147\n        /* \"#utility.yul\":2764:2767   */\n      dup3\n        /* \"#utility.yul\":2675:2768   */\n      tag_148\n      jump\t// in\n    tag_147:\n        /* \"#utility.yul\":2793:2795   */\n      0x20\n        /* \"#utility.yul\":2788:2791   */\n      dup3\n        /* \"#utility.yul\":2784:2796   */\n      add\n        /* \"#utility.yul\":2777:2796   */\n      swap1\n      pop\n        /* \"#utility.yul\":2582:2802   */\n      swap2\n      swap1\n      pop\n      jump\t// out\n        /* \"#utility.yul\":2808:3174   */\n    tag_149:\n      0x00\n        /* \"#utility.yul\":2971:3038   */\n      tag_151\n        /* \"#utility.yul\":3035:3037   */\n      0x20\n        /* \"#utility.yul\":3030:3033   */\n      dup4\n        /* \"#utility.yul\":2971:3038   */\n      tag_136\n      jump\t// in\n    tag_151:\n        /* \"#utility.yul\":2964:3038   */\n      swap2\n      pop\n        /* \"#utility.yul\":3047:3140   */\n      tag_152\n        /* \"#utility.yul\":3136:3139   */\n      dup3\n        /* \"#utility.yul\":3047:3140   */\n      tag_153\n      jump\t// in\n    tag_152:\n        /* \"#utility.yul\":3165:3167   */\n      0x20\n        /* \"#utility.yul\":3160:3163   */\n      dup3\n        /* \"#utility.yul\":3156:3168   */\n      add\n        /* \"#utility.yul\":3149:3168   */\n      swap1\n      pop\n        /* \"#utility.yul\":2954:3174   */\n      swap2\n      swap1\n      pop\n      jump\t// out\n        /* \"#utility.yul\":3180:3298   */\n    tag_154:\n        /* \"#utility.yul\":3267:3291   */\n      tag_156\n        /* \"#utility.yul\":3285:3290   */\n      dup2\n        /* \"#utility.yul\":3267:3291   */\n      tag_157\n      jump\t// in\n    tag_156:\n        /* \"#utility.yul\":3262:3265   */\n      dup3\n        /* \"#utility.yul\":3255:3292   */\n      mstore\n        /* \"#utility.yul\":3245:3298   */\n      pop\n      pop\n      jump\t// out\n        /* \"#utility.yul\":3304:3526   */\n    tag_26:\n      0x00\n        /* \"#utility.yul\":3435:3437   */\n      0x20\n        /* \"#utility.yul\":3424:3433   */\n      dup3\n        /* \"#utility.yul\":3420:3438   */\n      add\n        /* \"#utility.yul\":3412:3438   */\n      swap1\n      pop\n        /* \"#utility.yul\":3448:3519   */\n      tag_159\n        /* \"#utility.yul\":3516:3517   */\n      0x00\n        /* \"#utility.yul\":3505:3514   */\n      dup4\n        /* \"#utility.yul\":3501:3518   */\n      add\n        /* \"#utility.yul\":3492:3498   */\n      dup5\n        /* \"#utility.yul\":3448:3519   */\n      tag_129\n      jump\t// in\n    tag_159:\n        /* \"#utility.yul\":3402:3526   */\n      swap3\n      swap2\n      pop\n      pop\n      jump\t// out\n        /* \"#utility.yul\":3532:3951   */\n    tag_68:\n      0x00\n        /* \"#utility.yul\":3736:3738   */\n      0x20\n        /* \"#utility.yul\":3725:3734   */\n      dup3\n        /* \"#utility.yul\":3721:3739   */\n      add\n        /* \"#utility.yul\":3713:3739   */\n      swap1\n      pop\n        /* \"#utility.yul\":3785:3794   */\n      dup2\n        /* \"#utility.yul\":3779:3783   */\n      dup2\n        /* \"#utility.yul\":3775:3795   */\n      sub\n        /* \"#utility.yul\":3771:3772   */\n      0x00\n        /* \"#utility.yul\":3760:3769   */\n      dup4\n        /* \"#utility.yul\":3756:3773   */\n      add\n        /* \"#utility.yul\":3749:3796   */\n      mstore\n        /* \"#utility.yul\":3813:3944   */\n      tag_161\n        /* \"#utility.yul\":3939:3943   */\n      dup2\n        /* \"#utility.yul\":3813:3944   */\n      tag_133\n      jump\t// in\n    tag_161:\n        /* \"#utility.yul\":3805:3944   */\n      swap1\n      pop\n        /* \"#utility.yul\":3703:3951   */\n      swap2\n      swap1\n      pop\n      jump\t// out\n        /* \"#utility.yul\":3957:4376   */\n    tag_46:\n      0x00\n        /* \"#utility.yul\":4161:4163   */\n      0x20\n        /* \"#utility.yul\":4150:4159   */\n      dup3\n        /* \"#utility.yul\":4146:4164   */\n      add\n        /* \"#utility.yul\":4138:4164   */\n      swap1\n      pop\n        /* \"#utility.yul\":4210:4219   */\n      dup2\n        /* \"#utility.yul\":4204:4208   */\n      dup2\n        /* \"#utility.yul\":4200:4220   */\n      sub\n        /* \"#utility.yul\":4196:4197   */\n      0x00\n        /* \"#utility.yul\":4185:4194   */\n      dup4\n        /* \"#utility.yul\":4181:4198   */\n      add\n        /* \"#utility.yul\":4174:4221   */\n      mstore\n        /* \"#utility.yul\":4238:4369   */\n      tag_163\n        /* \"#utility.yul\":4364:4368   */\n      dup2\n        /* \"#utility.yul\":4238:4369   */\n      tag_139\n      jump\t// in\n    tag_163:\n        /* \"#utility.yul\":4230:4369   */\n      swap1\n      pop\n        /* \"#utility.yul\":4128:4376   */\n      swap2\n      swap1\n      pop\n      jump\t// out\n        /* \"#utility.yul\":4382:4801   */\n    tag_54:\n      0x00\n        /* \"#utility.yul\":4586:4588   */\n      0x20\n        /* \"#utility.yul\":4575:4584   */\n      dup3\n        /* \"#utility.yul\":4571:4589   */\n      add\n        /* \"#utility.yul\":4563:4589   */\n      swap1\n      pop\n        /* \"#utility.yul\":4635:4644   */\n      dup2\n        /* \"#utility.yul\":4629:4633   */\n      dup2\n        /* \"#utility.yul\":4625:4645   */\n      sub\n        /* \"#utility.yul\":4621:4622   */\n      0x00\n        /* \"#utility.yul\":4610:4619   */\n      dup4\n        /* \"#utility.yul\":4606:4623   */\n      add\n        /* \"#utility.yul\":4599:4646   */\n      mstore\n        /* \"#utility.yul\":4663:4794   */\n      tag_165\n        /* \"#utility.yul\":4789:4793   */\n      dup2\n        /* \"#utility.yul\":4663:4794   */\n      tag_144\n      jump\t// in\n    tag_165:\n        /* \"#utility.yul\":4655:4794   */\n      swap1\n      pop\n        /* \"#utility.yul\":4553:4801   */\n      swap2\n      swap1\n      pop\n      jump\t// out\n        /* \"#utility.yul\":4807:5226   */\n    tag_84:\n      0x00\n        /* \"#utility.yul\":5011:5013   */\n      0x20\n        /* \"#utility.yul\":5000:5009   */\n      dup3\n        /* \"#utility.yul\":4996:5014   */\n      add\n        /* \"#utility.yul\":4988:5014   */\n      swap1\n      pop\n        /* \"#utility.yul\":5060:5069   */\n      dup2\n        /* \"#utility.yul\":5054:5058   */\n      dup2\n        /* \"#utility.yul\":5050:5070   */\n      sub\n        /* \"#utility.yul\":5046:5047   */\n      0x00\n        /* \"#utility.yul\":5035:5044   */\n      dup4\n        /* \"#utility.yul\":5031:5048   */\n      add\n        /* \"#utility.yul\":5024:5071   */\n      mstore\n        /* \"#utility.yul\":5088:5219   */\n      tag_167\n        /* \"#utility.yul\":5214:5218   */\n      dup2\n        /* \"#utility.yul\":5088:5219   */\n      tag_149\n      jump\t// in\n    tag_167:\n        /* \"#utility.yul\":5080:5219   */\n      swap1\n      pop\n        /* \"#utility.yul\":4978:5226   */\n      swap2\n      swap1\n      pop\n      jump\t// out\n        /* \"#utility.yul\":5232:5454   */\n    tag_12:\n      0x00\n        /* \"#utility.yul\":5363:5365   */\n      0x20\n        /* \"#utility.yul\":5352:5361   */\n      dup3\n        /* \"#utility.yul\":5348:5366   */\n      add\n        /* \"#utility.yul\":5340:5366   */\n      swap1\n      pop\n        /* \"#utility.yul\":5376:5447   */\n      tag_169\n        /* \"#utility.yul\":5444:5445   */\n      0x00\n        /* \"#utility.yul\":5433:5442   */\n      dup4\n        /* \"#utility.yul\":5429:5446   */\n      add\n        /* \"#utility.yul\":5420:5426   */\n      dup5\n        /* \"#utility.yul\":5376:5447   */\n      tag_154\n      jump\t// in\n    tag_169:\n        /* \"#utility.yul\":5330:5454   */\n      swap3\n      swap2\n      pop\n      pop\n      jump\t// out\n        /* \"#utility.yul\":5460:5792   */\n    tag_75:\n      0x00\n        /* \"#utility.yul\":5619:5621   */\n      0x40\n        /* \"#utility.yul\":5608:5617   */\n      dup3\n        /* \"#utility.yul\":5604:5622   */\n      add\n        /* \"#utility.yul\":5596:5622   */\n      swap1\n      pop\n        /* \"#utility.yul\":5632:5703   */\n      tag_171\n        /* \"#utility.yul\":5700:5701   */\n      0x00\n        /* \"#utility.yul\":5689:5698   */\n      dup4\n        /* \"#utility.yul\":5685:5702   */\n      add\n        /* \"#utility.yul\":5676:5682   */\n      dup6\n        /* \"#utility.yul\":5632:5703   */\n      tag_154\n      jump\t// in\n    tag_171:\n        /* \"#utility.yul\":5713:5785   */\n      tag_172\n        /* \"#utility.yul\":5781:5783   */\n      0x20\n        /* \"#utility.yul\":5770:5779   */\n      dup4\n        /* \"#utility.yul\":5766:5784   */\n      add\n        /* \"#utility.yul\":5757:5763   */\n      dup5\n        /* \"#utility.yul\":5713:5785   */\n      tag_154\n      jump\t// in\n    tag_172:\n        /* \"#utility.yul\":5586:5792   */\n      swap4\n      swap3\n      pop\n      pop\n      pop\n      jump\t// out\n        /* \"#utility.yul\":5798:5967   */\n    tag_136:\n      0x00\n        /* \"#utility.yul\":5916:5922   */\n      dup3\n        /* \"#utility.yul\":5911:5914   */\n      dup3\n        /* \"#utility.yul\":5904:5923   */\n      mstore\n        /* \"#utility.yul\":5956:5960   */\n      0x20\n        /* \"#utility.yul\":5951:5954   */\n      dup3\n        /* \"#utility.yul\":5947:5961   */\n      add\n        /* \"#utility.yul\":5932:5961   */\n      swap1\n      pop\n        /* \"#utility.yul\":5894:5967   */\n      swap3\n      swap2\n      pop\n      pop\n      jump\t// out\n        /* \"#utility.yul\":5973:6278   */\n    tag_101:\n      0x00\n        /* \"#utility.yul\":6032:6052   */\n      tag_175\n        /* \"#utility.yul\":6050:6051   */\n      dup3\n        /* \"#utility.yul\":6032:6052   */\n      tag_157\n      jump\t// in\n    tag_175:\n        /* \"#utility.yul\":6027:6052   */\n      swap2\n      pop\n        /* \"#utility.yul\":6066:6086   */\n      tag_176\n        /* \"#utility.yul\":6084:6085   */\n      dup4\n        /* \"#utility.yul\":6066:6086   */\n      tag_157\n      jump\t// in\n    tag_176:\n        /* \"#utility.yul\":6061:6086   */\n      swap3\n      pop\n        /* \"#utility.yul\":6220:6221   */\n      dup3\n        /* \"#utility.yul\":6152:6218   */\n      0xffffffffffffffffffffffffffffffffffffffffffffffffffffffffffffffff\n        /* \"#utility.yul\":6148:6222   */\n      sub\n        /* \"#utility.yul\":6145:6146   */\n      dup3\n        /* \"#utility.yul\":6142:6223   */\n      gt\n        /* \"#utility.yul\":6139:6141   */\n      iszero\n      tag_177\n      jumpi\n        /* \"#utility.yul\":6226:6244   */\n      tag_178\n      tag_179\n      jump\t// in\n    tag_178:\n        /* \"#utility.yul\":6139:6141   */\n    tag_177:\n        /* \"#utility.yul\":6270:6271   */\n      dup3\n        /* \"#utility.yul\":6267:6268   */\n      dup3\n        /* \"#utility.yul\":6263:6272   */\n      add\n        /* \"#utility.yul\":6256:6272   */\n      swap1\n      pop\n        /* \"#utility.yul\":6017:6278   */\n      swap3\n      swap2\n      pop\n      pop\n      jump\t// out\n        /* \"#utility.yul\":6284:6475   */\n    tag_94:\n      0x00\n        /* \"#utility.yul\":6344:6364   */\n      tag_181\n        /* \"#utility.yul\":6362:6363   */\n      dup3\n        /* \"#utility.yul\":6344:6364   */\n      tag_157\n      jump\t// in\n    tag_181:\n        /* \"#utility.yul\":6339:6364   */\n      swap2\n      pop\n        /* \"#utility.yul\":6378:6398   */\n      tag_182\n        /* \"#utility.yul\":6396:6397   */\n      dup4\n        /* \"#utility.yul\":6378:6398   */\n      tag_157\n      jump\t// in\n    tag_182:\n        /* \"#utility.yul\":6373:6398   */\n      swap3\n      pop\n        /* \"#utility.yul\":6417:6418   */\n      dup3\n        /* \"#utility.yul\":6414:6415   */\n      dup3\n        /* \"#utility.yul\":6411:6419   */\n      lt\n        /* \"#utility.yul\":6408:6410   */\n      iszero\n      tag_183\n      jumpi\n        /* \"#utility.yul\":6422:6440   */\n      tag_184\n      tag_179\n      jump\t// in\n    tag_184:\n        /* \"#utility.yul\":6408:6410   */\n    tag_183:\n        /* \"#utility.yul\":6467:6468   */\n      dup3\n        /* \"#utility.yul\":6464:6465   */\n      dup3\n        /* \"#utility.yul\":6460:6469   */\n      sub\n        /* \"#utility.yul\":6452:6469   */\n      swap1\n      pop\n        /* \"#utility.yul\":6329:6475   */\n      swap3\n      swap2\n      pop\n      pop\n      jump\t// out\n        /* \"#utility.yul\":6481:6577   */\n    tag_132:\n      0x00\n        /* \"#utility.yul\":6547:6571   */\n      tag_186\n        /* \"#utility.yul\":6565:6570   */\n      dup3\n        /* \"#utility.yul\":6547:6571   */\n      tag_187\n      jump\t// in\n    tag_186:\n        /* \"#utility.yul\":6536:6571   */\n      swap1\n      pop\n        /* \"#utility.yul\":6526:6577   */\n      swap2\n      swap1\n      pop\n      jump\t// out\n        /* \"#utility.yul\":6583:6687   */\n    tag_188:\n      0x00\n        /* \"#utility.yul\":6657:6681   */\n      tag_190\n        /* \"#utility.yul\":6675:6680   */\n      dup3\n        /* \"#utility.yul\":6657:6681   */\n      tag_187\n      jump\t// in\n    tag_190:\n        /* \"#utility.yul\":6646:6681   */\n      swap1\n      pop\n        /* \"#utility.yul\":6636:6687   */\n      swap2\n      swap1\n      pop\n      jump\t// out\n        /* \"#utility.yul\":6693:6819   */\n    tag_187:\n      0x00\n        /* \"#utility.yul\":6770:6812   */\n      0xffffffffffffffffffffffffffffffffffffffff\n        /* \"#utility.yul\":6763:6768   */\n      dup3\n        /* \"#utility.yul\":6759:6813   */\n      and\n        /* \"#utility.yul\":6748:6813   */\n      swap1\n      pop\n        /* \"#utility.yul\":6738:6819   */\n      swap2\n      swap1\n      pop\n      jump\t// out\n        /* \"#utility.yul\":6825:6902   */\n    tag_157:\n      0x00\n        /* \"#utility.yul\":6891:6896   */\n      dup2\n        /* \"#utility.yul\":6880:6896   */\n      swap1\n      pop\n        /* \"#utility.yul\":6870:6902   */\n      swap2\n      swap1\n      pop\n      jump\t// out\n        /* \"#utility.yul\":6908:7088   */\n    tag_179:\n        /* \"#utility.yul\":6956:7033   */\n      0x4e487b7100000000000000000000000000000000000000000000000000000000\n        /* \"#utility.yul\":6953:6954   */\n      0x00\n        /* \"#utility.yul\":6946:7034   */\n      mstore\n        /* \"#utility.yul\":7053:7057   */\n      0x11\n        /* \"#utility.yul\":7050:7051   */\n      0x04\n        /* \"#utility.yul\":7043:7058   */\n      mstore\n        /* \"#utility.yul\":7077:7081   */\n      0x24\n        /* \"#utility.yul\":7074:7075   */\n      0x00\n        /* \"#utility.yul\":7067:7082   */\n      revert\n        /* \"#utility.yul\":7094:7319   */\n    tag_138:\n        /* \"#utility.yul\":7234:7268   */\n      0x4f776e61626c653a206e6577206f776e657220697320746865207a65726f2061\n        /* \"#utility.yul\":7230:7231   */\n      0x00\n        /* \"#utility.yul\":7222:7228   */\n      dup3\n        /* \"#utility.yul\":7218:7232   */\n      add\n        /* \"#utility.yul\":7211:7269   */\n      mstore\n        /* \"#utility.yul\":7303:7311   */\n      0x6464726573730000000000000000000000000000000000000000000000000000\n        /* \"#utility.yul\":7298:7300   */\n      0x20\n        /* \"#utility.yul\":7290:7296   */\n      dup3\n        /* \"#utility.yul\":7286:7301   */\n      add\n        /* \"#utility.yul\":7279:7312   */\n      mstore\n        /* \"#utility.yul\":7200:7319   */\n      pop\n      jump\t// out\n        /* \"#utility.yul\":7325:7498   */\n    tag_143:\n        /* \"#utility.yul\":7465:7490   */\n      0x43616e27742072656e6f756e63654f776e657273686970000000000000000000\n        /* \"#utility.yul\":7461:7462   */\n      0x00\n        /* \"#utility.yul\":7453:7459   */\n      dup3\n        /* \"#utility.yul\":7449:7463   */\n      add\n        /* \"#utility.yul\":7442:7491   */\n      mstore\n        /* \"#utility.yul\":7431:7498   */\n      pop\n      jump\t// out\n        /* \"#utility.yul\":7504:7676   */\n    tag_148:\n        /* \"#utility.yul\":7644:7668   */\n      0x596f7520617265206e6f7420616c6c6f77656421212100000000000000000000\n        /* \"#utility.yul\":7640:7641   */\n      0x00\n        /* \"#utility.yul\":7632:7638   */\n      dup3\n        /* \"#utility.yul\":7628:7642   */\n      add\n        /* \"#utility.yul\":7621:7669   */\n      mstore\n        /* \"#utility.yul\":7610:7676   */\n      pop\n      jump\t// out\n        /* \"#utility.yul\":7682:7864   */\n    tag_153:\n        /* \"#utility.yul\":7822:7856   */\n      0x4f776e61626c653a2063616c6c6572206973206e6f7420746865206f776e6572\n        /* \"#utility.yul\":7818:7819   */\n      0x00\n        /* \"#utility.yul\":7810:7816   */\n      dup3\n        /* \"#utility.yul\":7806:7820   */\n      add\n        /* \"#utility.yul\":7799:7857   */\n      mstore\n        /* \"#utility.yul\":7788:7864   */\n      pop\n      jump\t// out\n        /* \"#utility.yul\":7870:7992   */\n    tag_109:\n        /* \"#utility.yul\":7943:7967   */\n      tag_199\n        /* \"#utility.yul\":7961:7966   */\n      dup2\n        /* \"#utility.yul\":7943:7967   */\n      tag_132\n      jump\t// in\n    tag_199:\n        /* \"#utility.yul\":7936:7941   */\n      dup2\n        /* \"#utility.yul\":7933:7968   */\n      eq\n        /* \"#utility.yul\":7923:7925   */\n      tag_200\n      jumpi\n        /* \"#utility.yul\":7982:7983   */\n      0x00\n        /* \"#utility.yul\":7979:7980   */\n      dup1\n        /* \"#utility.yul\":7972:7984   */\n      revert\n        /* \"#utility.yul\":7923:7925   */\n    tag_200:\n        /* \"#utility.yul\":7913:7992   */\n      pop\n      jump\t// out\n        /* \"#utility.yul\":7998:8136   */\n    tag_113:\n        /* \"#utility.yul\":8079:8111   */\n      tag_202\n        /* \"#utility.yul\":8105:8110   */\n      dup2\n        /* \"#utility.yul\":8079:8111   */\n      tag_188\n      jump\t// in\n    tag_202:\n        /* \"#utility.yul\":8072:8077   */\n      dup2\n        /* \"#utility.yul\":8069:8112   */\n      eq\n        /* \"#utility.yul\":8059:8061   */\n      tag_203\n      jumpi\n        /* \"#utility.yul\":8126:8127   */\n      0x00\n        /* \"#utility.yul\":8123:8124   */\n      dup1\n        /* \"#utility.yul\":8116:8128   */\n      revert\n        /* \"#utility.yul\":8059:8061   */\n    tag_203:\n        /* \"#utility.yul\":8049:8136   */\n      pop\n      jump\t// out\n        /* \"#utility.yul\":8142:8264   */\n    tag_117:\n        /* \"#utility.yul\":8215:8239   */\n      tag_205\n        /* \"#utility.yul\":8233:8238   */\n      dup2\n        /* \"#utility.yul\":8215:8239   */\n      tag_157\n      jump\t// in\n    tag_205:\n        /* \"#utility.yul\":8208:8213   */\n      dup2\n        /* \"#utility.yul\":8205:8240   */\n      eq\n        /* \"#utility.yul\":8195:8197   */\n      tag_206\n      jumpi\n        /* \"#utility.yul\":8254:8255   */\n      0x00\n        /* \"#utility.yul\":8251:8252   */\n      dup1\n        /* \"#utility.yul\":8244:8256   */\n      revert\n        /* \"#utility.yul\":8195:8197   */\n    tag_206:\n        /* \"#utility.yul\":8185:8264   */\n      pop\n      jump\t// out\n\n    auxdata: 0xa2646970667358221220c0c7999eafb0b609a1a52c4d401ce9c8747691e6c599cfcd19569a6581e47f3164736f6c63430008010033\n}\n",
				"bytecode": {
					"linkReferences": {},
					"object": "608060405234801561001057600080fd5b5061002d61002261003260201b60201c565b61003a60201b60201c565b6100fe565b600033905090565b60008060009054906101000a900473ffffffffffffffffffffffffffffffffffffffff169050816000806101000a81548173ffffffffffffffffffffffffffffffffffffffff021916908373ffffffffffffffffffffffffffffffffffffffff1602179055508173ffffffffffffffffffffffffffffffffffffffff168173ffffffffffffffffffffffffffffffffffffffff167f8be0079c531659141344cd1fd0a4f28419497f9722a3daafe3b4186f6b6457e060405160405180910390a35050565b610dd48061010d6000396000f3fe6080604052600436106100595760003560e01c80633e5beab9146100b3578063715018a6146100f05780638da5cb5b14610107578063f274c89714610132578063f2fde38b1461015b578063f3c40c4b14610184576100ae565b366100ae573373ffffffffffffffffffffffffffffffffffffffff167f65c519e05f2e03178f5e6e20d883f3d2da5a0f8c84a1a31e57f54f64cd60ea5a346040516100a49190610b33565b60405180910390a2005b600080fd5b3480156100bf57600080fd5b506100da60048036038101906100d5919061094d565b6101ad565b6040516100e79190610b33565b60405180910390f35b3480156100fc57600080fd5b506101056101c5565b005b34801561011357600080fd5b5061011c610208565b6040516101299190610a98565b60405180910390f35b34801561013e57600080fd5b5061015960048036038101906101549190610976565b610231565b005b34801561016757600080fd5b50610182600480360381019061017d919061094d565b610374565b005b34801561019057600080fd5b506101ab60048036038101906101a691906109b2565b6103f8565b005b60016020528060005260406000206000915090505481565b6101cd61053f565b6040517f08c379a00000000000000000000000000000000000000000000000000000000081526004016101ff90610ad3565b60405180910390fd5b60008060009054906101000a900473ffffffffffffffffffffffffffffffffffffffff16905090565b8061023a6105bd565b80610284575080600160003373ffffffffffffffffffffffffffffffffffffffff1673ffffffffffffffffffffffffffffffffffffffff1681526020019081526020016000205410155b6102c3576040517f08c379a00000000000000000000000000000000000000000000000000000000081526004016102ba90610af3565b60405180910390fd5b6102cb6105bd565b6102da576102d933836105fa565b5b8273ffffffffffffffffffffffffffffffffffffffff167f7f51d406915971d4ac1c91af96be5187ea6ab64753785aad519a533def80a41e836040516103209190610b33565b60405180910390a28273ffffffffffffffffffffffffffffffffffffffff166108fc839081150290604051600060405180830381858888f1935050505015801561036e573d6000803e3d6000fd5b50505050565b61037c61053f565b600073ffffffffffffffffffffffffffffffffffffffff168173ffffffffffffffffffffffffffffffffffffffff1614156103ec576040517f08c379a00000000000000000000000000000000000000000000000000000000081526004016103e390610ab3565b60405180910390fd5b6103f581610816565b50565b61040061053f565b3373ffffffffffffffffffffffffffffffffffffffff168273ffffffffffffffffffffffffffffffffffffffff167f3691d1a86d99355e52b689ca70a7bdf6d80763237a6aa06e5fa43964eac7244b600160008673ffffffffffffffffffffffffffffffffffffffff1673ffffffffffffffffffffffffffffffffffffffff168152602001908152602001600020548460405161049e929190610b4e565b60405180910390a36104f881600160008573ffffffffffffffffffffffffffffffffffffffff1673ffffffffffffffffffffffffffffffffffffffff168152602001908152602001600020546108da90919063ffffffff16565b600160008473ffffffffffffffffffffffffffffffffffffffff1673ffffffffffffffffffffffffffffffffffffffff168152602001908152602001600020819055505050565b6105476108f0565b73ffffffffffffffffffffffffffffffffffffffff16610565610208565b73ffffffffffffffffffffffffffffffffffffffff16146105bb576040517f08c379a00000000000000000000000000000000000000000000000000000000081526004016105b290610b13565b60405180910390fd5b565b60003373ffffffffffffffffffffffffffffffffffffffff166105de610208565b73ffffffffffffffffffffffffffffffffffffffff1614905090565b806106036105bd565b8061064d575080600160003373ffffffffffffffffffffffffffffffffffffffff1673ffffffffffffffffffffffffffffffffffffffff1681526020019081526020016000205410155b61068c576040517f08c379a000000000000000000000000000000000000000000000000000000000815260040161068390610af3565b60405180910390fd5b3373ffffffffffffffffffffffffffffffffffffffff168373ffffffffffffffffffffffffffffffffffffffff167f3691d1a86d99355e52b689ca70a7bdf6d80763237a6aa06e5fa43964eac7244b600160008773ffffffffffffffffffffffffffffffffffffffff1673ffffffffffffffffffffffffffffffffffffffff1681526020019081526020016000205485600160008973ffffffffffffffffffffffffffffffffffffffff1673ffffffffffffffffffffffffffffffffffffffff168152602001908152602001600020546107669190610bde565b604051610774929190610b4e565b60405180910390a36107ce82600160008673ffffffffffffffffffffffffffffffffffffffff1673ffffffffffffffffffffffffffffffffffffffff168152602001908152602001600020546108f890919063ffffffff16565b600160008573ffffffffffffffffffffffffffffffffffffffff1673ffffffffffffffffffffffffffffffffffffffff16815260200190815260200160002081905550505050565b60008060009054906101000a900473ffffffffffffffffffffffffffffffffffffffff169050816000806101000a81548173ffffffffffffffffffffffffffffffffffffffff021916908373ffffffffffffffffffffffffffffffffffffffff1602179055508173ffffffffffffffffffffffffffffffffffffffff168173ffffffffffffffffffffffffffffffffffffffff167f8be0079c531659141344cd1fd0a4f28419497f9722a3daafe3b4186f6b6457e060405160405180910390a35050565b600081836108e89190610b88565b905092915050565b600033905090565b600081836109069190610bde565b905092915050565b60008135905061091d81610d59565b92915050565b60008135905061093281610d70565b92915050565b60008135905061094781610d87565b92915050565b60006020828403121561095f57600080fd5b600061096d8482850161090e565b91505092915050565b6000806040838503121561098957600080fd5b600061099785828601610923565b92505060206109a885828601610938565b9150509250929050565b600080604083850312156109c557600080fd5b60006109d38582860161090e565b92505060206109e485828601610938565b9150509250929050565b6109f781610c12565b82525050565b6000610a0a602683610b77565b9150610a1582610c8f565b604082019050919050565b6000610a2d601783610b77565b9150610a3882610cde565b602082019050919050565b6000610a50601683610b77565b9150610a5b82610d07565b602082019050919050565b6000610a73602083610b77565b9150610a7e82610d30565b602082019050919050565b610a9281610c56565b82525050565b6000602082019050610aad60008301846109ee565b92915050565b60006020820190508181036000830152610acc816109fd565b9050919050565b60006020820190508181036000830152610aec81610a20565b9050919050565b60006020820190508181036000830152610b0c81610a43565b9050919050565b60006020820190508181036000830152610b2c81610a66565b9050919050565b6000602082019050610b486000830184610a89565b92915050565b6000604082019050610b636000830185610a89565b610b706020830184610a89565b9392505050565b600082825260208201905092915050565b6000610b9382610c56565b9150610b9e83610c56565b9250827fffffffffffffffffffffffffffffffffffffffffffffffffffffffffffffffff03821115610bd357610bd2610c60565b5b828201905092915050565b6000610be982610c56565b9150610bf483610c56565b925082821015610c0757610c06610c60565b5b828203905092915050565b6000610c1d82610c36565b9050919050565b6000610c2f82610c36565b9050919050565b600073ffffffffffffffffffffffffffffffffffffffff82169050919050565b6000819050919050565b7f4e487b7100000000000000000000000000000000000000000000000000000000600052601160045260246000fd5b7f4f776e61626c653a206e6577206f776e657220697320746865207a65726f206160008201527f6464726573730000000000000000000000000000000000000000000000000000602082015250565b7f43616e27742072656e6f756e63654f776e657273686970000000000000000000600082015250565b7f596f7520617265206e6f7420616c6c6f77656421212100000000000000000000600082015250565b7f4f776e61626c653a2063616c6c6572206973206e6f7420746865206f776e6572600082015250565b610d6281610c12565b8114610d6d57600080fd5b50565b610d7981610c24565b8114610d8457600080fd5b50565b610d9081610c56565b8114610d9b57600080fd5b5056fea2646970667358221220c0c7999eafb0b609a1a52c4d401ce9c8747691e6c599cfcd19569a6581e47f3164736f6c63430008010033",
					"opcodes": "PUSH1 0x80 PUSH1 0x40 MSTORE CALLVALUE DUP1 ISZERO PUSH2 0x10 JUMPI PUSH1 0x0 DUP1 REVERT JUMPDEST POP PUSH2 0x2D PUSH2 0x22 PUSH2 0x32 PUSH1 0x20 SHL PUSH1 0x20 SHR JUMP JUMPDEST PUSH2 0x3A PUSH1 0x20 SHL PUSH1 0x20 SHR JUMP JUMPDEST PUSH2 0xFE JUMP JUMPDEST PUSH1 0x0 CALLER SWAP1 POP SWAP1 JUMP JUMPDEST PUSH1 0x0 DUP1 PUSH1 0x0 SWAP1 SLOAD SWAP1 PUSH2 0x100 EXP SWAP1 DIV PUSH20 0xFFFFFFFFFFFFFFFFFFFFFFFFFFFFFFFFFFFFFFFF AND SWAP1 POP DUP2 PUSH1 0x0 DUP1 PUSH2 0x100 EXP DUP2 SLOAD DUP2 PUSH20 0xFFFFFFFFFFFFFFFFFFFFFFFFFFFFFFFFFFFFFFFF MUL NOT AND SWAP1 DUP4 PUSH20 0xFFFFFFFFFFFFFFFFFFFFFFFFFFFFFFFFFFFFFFFF AND MUL OR SWAP1 SSTORE POP DUP2 PUSH20 0xFFFFFFFFFFFFFFFFFFFFFFFFFFFFFFFFFFFFFFFF AND DUP2 PUSH20 0xFFFFFFFFFFFFFFFFFFFFFFFFFFFFFFFFFFFFFFFF AND PUSH32 0x8BE0079C531659141344CD1FD0A4F28419497F9722A3DAAFE3B4186F6B6457E0 PUSH1 0x40 MLOAD PUSH1 0x40 MLOAD DUP1 SWAP2 SUB SWAP1 LOG3 POP POP JUMP JUMPDEST PUSH2 0xDD4 DUP1 PUSH2 0x10D PUSH1 0x0 CODECOPY PUSH1 0x0 RETURN INVALID PUSH1 0x80 PUSH1 0x40 MSTORE PUSH1 0x4 CALLDATASIZE LT PUSH2 0x59 JUMPI PUSH1 0x0 CALLDATALOAD PUSH1 0xE0 SHR DUP1 PUSH4 0x3E5BEAB9 EQ PUSH2 0xB3 JUMPI DUP1 PUSH4 0x715018A6 EQ PUSH2 0xF0 JUMPI DUP1 PUSH4 0x8DA5CB5B EQ PUSH2 0x107 JUMPI DUP1 PUSH4 0xF274C897 EQ PUSH2 0x132 JUMPI DUP1 PUSH4 0xF2FDE38B EQ PUSH2 0x15B JUMPI DUP1 PUSH4 0xF3C40C4B EQ PUSH2 0x184 JUMPI PUSH2 0xAE JUMP JUMPDEST CALLDATASIZE PUSH2 0xAE JUMPI CALLER PUSH20 0xFFFFFFFFFFFFFFFFFFFFFFFFFFFFFFFFFFFFFFFF AND PUSH32 0x65C519E05F2E03178F5E6E20D883F3D2DA5A0F8C84A1A31E57F54F64CD60EA5A CALLVALUE PUSH1 0x40 MLOAD PUSH2 0xA4 SWAP2 SWAP1 PUSH2 0xB33 JUMP JUMPDEST PUSH1 0x40 MLOAD DUP1 SWAP2 SUB SWAP1 LOG2 STOP JUMPDEST PUSH1 0x0 DUP1 REVERT JUMPDEST CALLVALUE DUP1 ISZERO PUSH2 0xBF JUMPI PUSH1 0x0 DUP1 REVERT JUMPDEST POP PUSH2 0xDA PUSH1 0x4 DUP1 CALLDATASIZE SUB DUP2 ADD SWAP1 PUSH2 0xD5 SWAP2 SWAP1 PUSH2 0x94D JUMP JUMPDEST PUSH2 0x1AD JUMP JUMPDEST PUSH1 0x40 MLOAD PUSH2 0xE7 SWAP2 SWAP1 PUSH2 0xB33 JUMP JUMPDEST PUSH1 0x40 MLOAD DUP1 SWAP2 SUB SWAP1 RETURN JUMPDEST CALLVALUE DUP1 ISZERO PUSH2 0xFC JUMPI PUSH1 0x0 DUP1 REVERT JUMPDEST POP PUSH2 0x105 PUSH2 0x1C5 JUMP JUMPDEST STOP JUMPDEST CALLVALUE DUP1 ISZERO PUSH2 0x113 JUMPI PUSH1 0x0 DUP1 REVERT JUMPDEST POP PUSH2 0x11C PUSH2 0x208 JUMP JUMPDEST PUSH1 0x40 MLOAD PUSH2 0x129 SWAP2 SWAP1 PUSH2 0xA98 JUMP JUMPDEST PUSH1 0x40 MLOAD DUP1 SWAP2 SUB SWAP1 RETURN JUMPDEST CALLVALUE DUP1 ISZERO PUSH2 0x13E JUMPI PUSH1 0x0 DUP1 REVERT JUMPDEST POP PUSH2 0x159 PUSH1 0x4 DUP1 CALLDATASIZE SUB DUP2 ADD SWAP1 PUSH2 0x154 SWAP2 SWAP1 PUSH2 0x976 JUMP JUMPDEST PUSH2 0x231 JUMP JUMPDEST STOP JUMPDEST CALLVALUE DUP1 ISZERO PUSH2 0x167 JUMPI PUSH1 0x0 DUP1 REVERT JUMPDEST POP PUSH2 0x182 PUSH1 0x4 DUP1 CALLDATASIZE SUB DUP2 ADD SWAP1 PUSH2 0x17D SWAP2 SWAP1 PUSH2 0x94D JUMP JUMPDEST PUSH2 0x374 JUMP JUMPDEST STOP JUMPDEST CALLVALUE DUP1 ISZERO PUSH2 0x190 JUMPI PUSH1 0x0 DUP1 REVERT JUMPDEST POP PUSH2 0x1AB PUSH1 0x4 DUP1 CALLDATASIZE SUB DUP2 ADD SWAP1 PUSH2 0x1A6 SWAP2 SWAP1 PUSH2 0x9B2 JUMP JUMPDEST PUSH2 0x3F8 JUMP JUMPDEST STOP JUMPDEST PUSH1 0x1 PUSH1 0x20 MSTORE DUP1 PUSH1 0x0 MSTORE PUSH1 0x40 PUSH1 0x0 KECCAK256 PUSH1 0x0 SWAP2 POP SWAP1 POP SLOAD DUP2 JUMP JUMPDEST PUSH2 0x1CD PUSH2 0x53F JUMP JUMPDEST PUSH1 0x40 MLOAD PUSH32 0x8C379A000000000000000000000000000000000000000000000000000000000 DUP2 MSTORE PUSH1 0x4 ADD PUSH2 0x1FF SWAP1 PUSH2 0xAD3 JUMP JUMPDEST PUSH1 0x40 MLOAD DUP1 SWAP2 SUB SWAP1 REVERT JUMPDEST PUSH1 0x0 DUP1 PUSH1 0x0 SWAP1 SLOAD SWAP1 PUSH2 0x100 EXP SWAP1 DIV PUSH20 0xFFFFFFFFFFFFFFFFFFFFFFFFFFFFFFFFFFFFFFFF AND SWAP1 POP SWAP1 JUMP JUMPDEST DUP1 PUSH2 0x23A PUSH2 0x5BD JUMP JUMPDEST DUP1 PUSH2 0x284 JUMPI POP DUP1 PUSH1 0x1 PUSH1 0x0 CALLER PUSH20 0xFFFFFFFFFFFFFFFFFFFFFFFFFFFFFFFFFFFFFFFF AND PUSH20 0xFFFFFFFFFFFFFFFFFFFFFFFFFFFFFFFFFFFFFFFF AND DUP2 MSTORE PUSH1 0x20 ADD SWAP1 DUP2 MSTORE PUSH1 0x20 ADD PUSH1 0x0 KECCAK256 SLOAD LT ISZERO JUMPDEST PUSH2 0x2C3 JUMPI PUSH1 0x40 MLOAD PUSH32 0x8C379A000000000000000000000000000000000000000000000000000000000 DUP2 MSTORE PUSH1 0x4 ADD PUSH2 0x2BA SWAP1 PUSH2 0xAF3 JUMP JUMPDEST PUSH1 0x40 MLOAD DUP1 SWAP2 SUB SWAP1 REVERT JUMPDEST PUSH2 0x2CB PUSH2 0x5BD JUMP JUMPDEST PUSH2 0x2DA JUMPI PUSH2 0x2D9 CALLER DUP4 PUSH2 0x5FA JUMP JUMPDEST JUMPDEST DUP3 PUSH20 0xFFFFFFFFFFFFFFFFFFFFFFFFFFFFFFFFFFFFFFFF AND PUSH32 0x7F51D406915971D4AC1C91AF96BE5187EA6AB64753785AAD519A533DEF80A41E DUP4 PUSH1 0x40 MLOAD PUSH2 0x320 SWAP2 SWAP1 PUSH2 0xB33 JUMP JUMPDEST PUSH1 0x40 MLOAD DUP1 SWAP2 SUB SWAP1 LOG2 DUP3 PUSH20 0xFFFFFFFFFFFFFFFFFFFFFFFFFFFFFFFFFFFFFFFF AND PUSH2 0x8FC DUP4 SWAP1 DUP2 ISZERO MUL SWAP1 PUSH1 0x40 MLOAD PUSH1 0x0 PUSH1 0x40 MLOAD DUP1 DUP4 SUB DUP2 DUP6 DUP9 DUP9 CALL SWAP4 POP POP POP POP ISZERO DUP1 ISZERO PUSH2 0x36E JUMPI RETURNDATASIZE PUSH1 0x0 DUP1 RETURNDATACOPY RETURNDATASIZE PUSH1 0x0 REVERT JUMPDEST POP POP POP POP JUMP JUMPDEST PUSH2 0x37C PUSH2 0x53F JUMP JUMPDEST PUSH1 0x0 PUSH20 0xFFFFFFFFFFFFFFFFFFFFFFFFFFFFFFFFFFFFFFFF AND DUP2 PUSH20 0xFFFFFFFFFFFFFFFFFFFFFFFFFFFFFFFFFFFFFFFF AND EQ ISZERO PUSH2 0x3EC JUMPI PUSH1 0x40 MLOAD PUSH32 0x8C379A000000000000000000000000000000000000000000000000000000000 DUP2 MSTORE PUSH1 0x4 ADD PUSH2 0x3E3 SWAP1 PUSH2 0xAB3 JUMP JUMPDEST PUSH1 0x40 MLOAD DUP1 SWAP2 SUB SWAP1 REVERT JUMPDEST PUSH2 0x3F5 DUP2 PUSH2 0x816 JUMP JUMPDEST POP JUMP JUMPDEST PUSH2 0x400 PUSH2 0x53F JUMP JUMPDEST CALLER PUSH20 0xFFFFFFFFFFFFFFFFFFFFFFFFFFFFFFFFFFFFFFFF AND DUP3 PUSH20 0xFFFFFFFFFFFFFFFFFFFFFFFFFFFFFFFFFFFFFFFF AND PUSH32 0x3691D1A86D99355E52B689CA70A7BDF6D80763237A6AA06E5FA43964EAC7244B PUSH1 0x1 PUSH1 0x0 DUP7 PUSH20 0xFFFFFFFFFFFFFFFFFFFFFFFFFFFFFFFFFFFFFFFF AND PUSH20 0xFFFFFFFFFFFFFFFFFFFFFFFFFFFFFFFFFFFFFFFF AND DUP2 MSTORE PUSH1 0x20 ADD SWAP1 DUP2 MSTORE PUSH1 0x20 ADD PUSH1 0x0 KECCAK256 SLOAD DUP5 PUSH1 0x40 MLOAD PUSH2 0x49E SWAP3 SWAP2 SWAP1 PUSH2 0xB4E JUMP JUMPDEST PUSH1 0x40 MLOAD DUP1 SWAP2 SUB SWAP1 LOG3 PUSH2 0x4F8 DUP2 PUSH1 0x1 PUSH1 0x0 DUP6 PUSH20 0xFFFFFFFFFFFFFFFFFFFFFFFFFFFFFFFFFFFFFFFF AND PUSH20 0xFFFFFFFFFFFFFFFFFFFFFFFFFFFFFFFFFFFFFFFF AND DUP2 MSTORE PUSH1 0x20 ADD SWAP1 DUP2 MSTORE PUSH1 0x20 ADD PUSH1 0x0 KECCAK256 SLOAD PUSH2 0x8DA SWAP1 SWAP2 SWAP1 PUSH4 0xFFFFFFFF AND JUMP JUMPDEST PUSH1 0x1 PUSH1 0x0 DUP5 PUSH20 0xFFFFFFFFFFFFFFFFFFFFFFFFFFFFFFFFFFFFFFFF AND PUSH20 0xFFFFFFFFFFFFFFFFFFFFFFFFFFFFFFFFFFFFFFFF AND DUP2 MSTORE PUSH1 0x20 ADD SWAP1 DUP2 MSTORE PUSH1 0x20 ADD PUSH1 0x0 KECCAK256 DUP2 SWAP1 SSTORE POP POP POP JUMP JUMPDEST PUSH2 0x547 PUSH2 0x8F0 JUMP JUMPDEST PUSH20 0xFFFFFFFFFFFFFFFFFFFFFFFFFFFFFFFFFFFFFFFF AND PUSH2 0x565 PUSH2 0x208 JUMP JUMPDEST PUSH20 0xFFFFFFFFFFFFFFFFFFFFFFFFFFFFFFFFFFFFFFFF AND EQ PUSH2 0x5BB JUMPI PUSH1 0x40 MLOAD PUSH32 0x8C379A000000000000000000000000000000000000000000000000000000000 DUP2 MSTORE PUSH1 0x4 ADD PUSH2 0x5B2 SWAP1 PUSH2 0xB13 JUMP JUMPDEST PUSH1 0x40 MLOAD DUP1 SWAP2 SUB SWAP1 REVERT JUMPDEST JUMP JUMPDEST PUSH1 0x0 CALLER PUSH20 0xFFFFFFFFFFFFFFFFFFFFFFFFFFFFFFFFFFFFFFFF AND PUSH2 0x5DE PUSH2 0x208 JUMP JUMPDEST PUSH20 0xFFFFFFFFFFFFFFFFFFFFFFFFFFFFFFFFFFFFFFFF AND EQ SWAP1 POP SWAP1 JUMP JUMPDEST DUP1 PUSH2 0x603 PUSH2 0x5BD JUMP JUMPDEST DUP1 PUSH2 0x64D JUMPI POP DUP1 PUSH1 0x1 PUSH1 0x0 CALLER PUSH20 0xFFFFFFFFFFFFFFFFFFFFFFFFFFFFFFFFFFFFFFFF AND PUSH20 0xFFFFFFFFFFFFFFFFFFFFFFFFFFFFFFFFFFFFFFFF AND DUP2 MSTORE PUSH1 0x20 ADD SWAP1 DUP2 MSTORE PUSH1 0x20 ADD PUSH1 0x0 KECCAK256 SLOAD LT ISZERO JUMPDEST PUSH2 0x68C JUMPI PUSH1 0x40 MLOAD PUSH32 0x8C379A000000000000000000000000000000000000000000000000000000000 DUP2 MSTORE PUSH1 0x4 ADD PUSH2 0x683 SWAP1 PUSH2 0xAF3 JUMP JUMPDEST PUSH1 0x40 MLOAD DUP1 SWAP2 SUB SWAP1 REVERT JUMPDEST CALLER PUSH20 0xFFFFFFFFFFFFFFFFFFFFFFFFFFFFFFFFFFFFFFFF AND DUP4 PUSH20 0xFFFFFFFFFFFFFFFFFFFFFFFFFFFFFFFFFFFFFFFF AND PUSH32 0x3691D1A86D99355E52B689CA70A7BDF6D80763237A6AA06E5FA43964EAC7244B PUSH1 0x1 PUSH1 0x0 DUP8 PUSH20 0xFFFFFFFFFFFFFFFFFFFFFFFFFFFFFFFFFFFFFFFF AND PUSH20 0xFFFFFFFFFFFFFFFFFFFFFFFFFFFFFFFFFFFFFFFF AND DUP2 MSTORE PUSH1 0x20 ADD SWAP1 DUP2 MSTORE PUSH1 0x20 ADD PUSH1 0x0 KECCAK256 SLOAD DUP6 PUSH1 0x1 PUSH1 0x0 DUP10 PUSH20 0xFFFFFFFFFFFFFFFFFFFFFFFFFFFFFFFFFFFFFFFF AND PUSH20 0xFFFFFFFFFFFFFFFFFFFFFFFFFFFFFFFFFFFFFFFF AND DUP2 MSTORE PUSH1 0x20 ADD SWAP1 DUP2 MSTORE PUSH1 0x20 ADD PUSH1 0x0 KECCAK256 SLOAD PUSH2 0x766 SWAP2 SWAP1 PUSH2 0xBDE JUMP JUMPDEST PUSH1 0x40 MLOAD PUSH2 0x774 SWAP3 SWAP2 SWAP1 PUSH2 0xB4E JUMP JUMPDEST PUSH1 0x40 MLOAD DUP1 SWAP2 SUB SWAP1 LOG3 PUSH2 0x7CE DUP3 PUSH1 0x1 PUSH1 0x0 DUP7 PUSH20 0xFFFFFFFFFFFFFFFFFFFFFFFFFFFFFFFFFFFFFFFF AND PUSH20 0xFFFFFFFFFFFFFFFFFFFFFFFFFFFFFFFFFFFFFFFF AND DUP2 MSTORE PUSH1 0x20 ADD SWAP1 DUP2 MSTORE PUSH1 0x20 ADD PUSH1 0x0 KECCAK256 SLOAD PUSH2 0x8F8 SWAP1 SWAP2 SWAP1 PUSH4 0xFFFFFFFF AND JUMP JUMPDEST PUSH1 0x1 PUSH1 0x0 DUP6 PUSH20 0xFFFFFFFFFFFFFFFFFFFFFFFFFFFFFFFFFFFFFFFF AND PUSH20 0xFFFFFFFFFFFFFFFFFFFFFFFFFFFFFFFFFFFFFFFF AND DUP2 MSTORE PUSH1 0x20 ADD SWAP1 DUP2 MSTORE PUSH1 0x20 ADD PUSH1 0x0 KECCAK256 DUP2 SWAP1 SSTORE POP POP POP POP JUMP JUMPDEST PUSH1 0x0 DUP1 PUSH1 0x0 SWAP1 SLOAD SWAP1 PUSH2 0x100 EXP SWAP1 DIV PUSH20 0xFFFFFFFFFFFFFFFFFFFFFFFFFFFFFFFFFFFFFFFF AND SWAP1 POP DUP2 PUSH1 0x0 DUP1 PUSH2 0x100 EXP DUP2 SLOAD DUP2 PUSH20 0xFFFFFFFFFFFFFFFFFFFFFFFFFFFFFFFFFFFFFFFF MUL NOT AND SWAP1 DUP4 PUSH20 0xFFFFFFFFFFFFFFFFFFFFFFFFFFFFFFFFFFFFFFFF AND MUL OR SWAP1 SSTORE POP DUP2 PUSH20 0xFFFFFFFFFFFFFFFFFFFFFFFFFFFFFFFFFFFFFFFF AND DUP2 PUSH20 0xFFFFFFFFFFFFFFFFFFFFFFFFFFFFFFFFFFFFFFFF AND PUSH32 0x8BE0079C531659141344CD1FD0A4F28419497F9722A3DAAFE3B4186F6B6457E0 PUSH1 0x40 MLOAD PUSH1 0x40 MLOAD DUP1 SWAP2 SUB SWAP1 LOG3 POP POP JUMP JUMPDEST PUSH1 0x0 DUP2 DUP4 PUSH2 0x8E8 SWAP2 SWAP1 PUSH2 0xB88 JUMP JUMPDEST SWAP1 POP SWAP3 SWAP2 POP POP JUMP JUMPDEST PUSH1 0x0 CALLER SWAP1 POP SWAP1 JUMP JUMPDEST PUSH1 0x0 DUP2 DUP4 PUSH2 0x906 SWAP2 SWAP1 PUSH2 0xBDE JUMP JUMPDEST SWAP1 POP SWAP3 SWAP2 POP POP JUMP JUMPDEST PUSH1 0x0 DUP2 CALLDATALOAD SWAP1 POP PUSH2 0x91D DUP2 PUSH2 0xD59 JUMP JUMPDEST SWAP3 SWAP2 POP POP JUMP JUMPDEST PUSH1 0x0 DUP2 CALLDATALOAD SWAP1 POP PUSH2 0x932 DUP2 PUSH2 0xD70 JUMP JUMPDEST SWAP3 SWAP2 POP POP JUMP JUMPDEST PUSH1 0x0 DUP2 CALLDATALOAD SWAP1 POP PUSH2 0x947 DUP2 PUSH2 0xD87 JUMP JUMPDEST SWAP3 SWAP2 POP POP JUMP JUMPDEST PUSH1 0x0 PUSH1 0x20 DUP3 DUP5 SUB SLT ISZERO PUSH2 0x95F JUMPI PUSH1 0x0 DUP1 REVERT JUMPDEST PUSH1 0x0 PUSH2 0x96D DUP5 DUP3 DUP6 ADD PUSH2 0x90E JUMP JUMPDEST SWAP2 POP POP SWAP3 SWAP2 POP POP JUMP JUMPDEST PUSH1 0x0 DUP1 PUSH1 0x40 DUP4 DUP6 SUB SLT ISZERO PUSH2 0x989 JUMPI PUSH1 0x0 DUP1 REVERT JUMPDEST PUSH1 0x0 PUSH2 0x997 DUP6 DUP3 DUP7 ADD PUSH2 0x923 JUMP JUMPDEST SWAP3 POP POP PUSH1 0x20 PUSH2 0x9A8 DUP6 DUP3 DUP7 ADD PUSH2 0x938 JUMP JUMPDEST SWAP2 POP POP SWAP3 POP SWAP3 SWAP1 POP JUMP JUMPDEST PUSH1 0x0 DUP1 PUSH1 0x40 DUP4 DUP6 SUB SLT ISZERO PUSH2 0x9C5 JUMPI PUSH1 0x0 DUP1 REVERT JUMPDEST PUSH1 0x0 PUSH2 0x9D3 DUP6 DUP3 DUP7 ADD PUSH2 0x90E JUMP JUMPDEST SWAP3 POP POP PUSH1 0x20 PUSH2 0x9E4 DUP6 DUP3 DUP7 ADD PUSH2 0x938 JUMP JUMPDEST SWAP2 POP POP SWAP3 POP SWAP3 SWAP1 POP JUMP JUMPDEST PUSH2 0x9F7 DUP2 PUSH2 0xC12 JUMP JUMPDEST DUP3 MSTORE POP POP JUMP JUMPDEST PUSH1 0x0 PUSH2 0xA0A PUSH1 0x26 DUP4 PUSH2 0xB77 JUMP JUMPDEST SWAP2 POP PUSH2 0xA15 DUP3 PUSH2 0xC8F JUMP JUMPDEST PUSH1 0x40 DUP3 ADD SWAP1 POP SWAP2 SWAP1 POP JUMP JUMPDEST PUSH1 0x0 PUSH2 0xA2D PUSH1 0x17 DUP4 PUSH2 0xB77 JUMP JUMPDEST SWAP2 POP PUSH2 0xA38 DUP3 PUSH2 0xCDE JUMP JUMPDEST PUSH1 0x20 DUP3 ADD SWAP1 POP SWAP2 SWAP1 POP JUMP JUMPDEST PUSH1 0x0 PUSH2 0xA50 PUSH1 0x16 DUP4 PUSH2 0xB77 JUMP JUMPDEST SWAP2 POP PUSH2 0xA5B DUP3 PUSH2 0xD07 JUMP JUMPDEST PUSH1 0x20 DUP3 ADD SWAP1 POP SWAP2 SWAP1 POP JUMP JUMPDEST PUSH1 0x0 PUSH2 0xA73 PUSH1 0x20 DUP4 PUSH2 0xB77 JUMP JUMPDEST SWAP2 POP PUSH2 0xA7E DUP3 PUSH2 0xD30 JUMP JUMPDEST PUSH1 0x20 DUP3 ADD SWAP1 POP SWAP2 SWAP1 POP JUMP JUMPDEST PUSH2 0xA92 DUP2 PUSH2 0xC56 JUMP JUMPDEST DUP3 MSTORE POP POP JUMP JUMPDEST PUSH1 0x0 PUSH1 0x20 DUP3 ADD SWAP1 POP PUSH2 0xAAD PUSH1 0x0 DUP4 ADD DUP5 PUSH2 0x9EE JUMP JUMPDEST SWAP3 SWAP2 POP POP JUMP JUMPDEST PUSH1 0x0 PUSH1 0x20 DUP3 ADD SWAP1 POP DUP2 DUP2 SUB PUSH1 0x0 DUP4 ADD MSTORE PUSH2 0xACC DUP2 PUSH2 0x9FD JUMP JUMPDEST SWAP1 POP SWAP2 SWAP1 POP JUMP JUMPDEST PUSH1 0x0 PUSH1 0x20 DUP3 ADD SWAP1 POP DUP2 DUP2 SUB PUSH1 0x0 DUP4 ADD MSTORE PUSH2 0xAEC DUP2 PUSH2 0xA20 JUMP JUMPDEST SWAP1 POP SWAP2 SWAP1 POP JUMP JUMPDEST PUSH1 0x0 PUSH1 0x20 DUP3 ADD SWAP1 POP DUP2 DUP2 SUB PUSH1 0x0 DUP4 ADD MSTORE PUSH2 0xB0C DUP2 PUSH2 0xA43 JUMP JUMPDEST SWAP1 POP SWAP2 SWAP1 POP JUMP JUMPDEST PUSH1 0x0 PUSH1 0x20 DUP3 ADD SWAP1 POP DUP2 DUP2 SUB PUSH1 0x0 DUP4 ADD MSTORE PUSH2 0xB2C DUP2 PUSH2 0xA66 JUMP JUMPDEST SWAP1 POP SWAP2 SWAP1 POP JUMP JUMPDEST PUSH1 0x0 PUSH1 0x20 DUP3 ADD SWAP1 POP PUSH2 0xB48 PUSH1 0x0 DUP4 ADD DUP5 PUSH2 0xA89 JUMP JUMPDEST SWAP3 SWAP2 POP POP JUMP JUMPDEST PUSH1 0x0 PUSH1 0x40 DUP3 ADD SWAP1 POP PUSH2 0xB63 PUSH1 0x0 DUP4 ADD DUP6 PUSH2 0xA89 JUMP JUMPDEST PUSH2 0xB70 PUSH1 0x20 DUP4 ADD DUP5 PUSH2 0xA89 JUMP JUMPDEST SWAP4 SWAP3 POP POP POP JUMP JUMPDEST PUSH1 0x0 DUP3 DUP3 MSTORE PUSH1 0x20 DUP3 ADD SWAP1 POP SWAP3 SWAP2 POP POP JUMP JUMPDEST PUSH1 0x0 PUSH2 0xB93 DUP3 PUSH2 0xC56 JUMP JUMPDEST SWAP2 POP PUSH2 0xB9E DUP4 PUSH2 0xC56 JUMP JUMPDEST SWAP3 POP DUP3 PUSH32 0xFFFFFFFFFFFFFFFFFFFFFFFFFFFFFFFFFFFFFFFFFFFFFFFFFFFFFFFFFFFFFFFF SUB DUP3 GT ISZERO PUSH2 0xBD3 JUMPI PUSH2 0xBD2 PUSH2 0xC60 JUMP JUMPDEST JUMPDEST DUP3 DUP3 ADD SWAP1 POP SWAP3 SWAP2 POP POP JUMP JUMPDEST PUSH1 0x0 PUSH2 0xBE9 DUP3 PUSH2 0xC56 JUMP JUMPDEST SWAP2 POP PUSH2 0xBF4 DUP4 PUSH2 0xC56 JUMP JUMPDEST SWAP3 POP DUP3 DUP3 LT ISZERO PUSH2 0xC07 JUMPI PUSH2 0xC06 PUSH2 0xC60 JUMP JUMPDEST JUMPDEST DUP3 DUP3 SUB SWAP1 POP SWAP3 SWAP2 POP POP JUMP JUMPDEST PUSH1 0x0 PUSH2 0xC1D DUP3 PUSH2 0xC36 JUMP JUMPDEST SWAP1 POP SWAP2 SWAP1 POP JUMP JUMPDEST PUSH1 0x0 PUSH2 0xC2F DUP3 PUSH2 0xC36 JUMP JUMPDEST SWAP1 POP SWAP2 SWAP1 POP JUMP JUMPDEST PUSH1 0x0 PUSH20 0xFFFFFFFFFFFFFFFFFFFFFFFFFFFFFFFFFFFFFFFF DUP3 AND SWAP1 POP SWAP2 SWAP1 POP JUMP JUMPDEST PUSH1 0x0 DUP2 SWAP1 POP SWAP2 SWAP1 POP JUMP JUMPDEST PUSH32 0x4E487B7100000000000000000000000000000000000000000000000000000000 PUSH1 0x0 MSTORE PUSH1 0x11 PUSH1 0x4 MSTORE PUSH1 0x24 PUSH1 0x0 REVERT JUMPDEST PUSH32 0x4F776E61626C653A206E6577206F776E657220697320746865207A65726F2061 PUSH1 0x0 DUP3 ADD MSTORE PUSH32 0x6464726573730000000000000000000000000000000000000000000000000000 PUSH1 0x20 DUP3 ADD MSTORE POP JUMP JUMPDEST PUSH32 0x43616E27742072656E6F756E63654F776E657273686970000000000000000000 PUSH1 0x0 DUP3 ADD MSTORE POP JUMP JUMPDEST PUSH32 0x596F7520617265206E6F7420616C6C6F77656421212100000000000000000000 PUSH1 0x0 DUP3 ADD MSTORE POP JUMP JUMPDEST PUSH32 0x4F776E61626C653A2063616C6C6572206973206E6F7420746865206F776E6572 PUSH1 0x0 DUP3 ADD MSTORE POP JUMP JUMPDEST PUSH2 0xD62 DUP2 PUSH2 0xC12 JUMP JUMPDEST DUP2 EQ PUSH2 0xD6D JUMPI PUSH1 0x0 DUP1 REVERT JUMPDEST POP JUMP JUMPDEST PUSH2 0xD79 DUP2 PUSH2 0xC24 JUMP JUMPDEST DUP2 EQ PUSH2 0xD84 JUMPI PUSH1 0x0 DUP1 REVERT JUMPDEST POP JUMP JUMPDEST PUSH2 0xD90 DUP2 PUSH2 0xC56 JUMP JUMPDEST DUP2 EQ PUSH2 0xD9B JUMPI PUSH1 0x0 DUP1 REVERT JUMPDEST POP JUMP INVALID LOG2 PUSH5 0x6970667358 0x22 SLT KECCAK256 0xC0 0xC7 SWAP10 SWAP15 0xAF 0xB0 0xB6 MULMOD LOG1 0xA5 0x2C 0x4D BLOCKHASH SHR 0xE9 0xC8 PUSH21 0x7691E6C599CFCD19569A6581E47F3164736F6C6343 STOP ADDMOD ADD STOP CALLER "
				},
				"gasEstimates": {
					"creation": {
						"codeDepositCost": "708000",
						"executionCost": "infinite",
						"totalCost": "infinite"
					},
					"external": {
						"addAllowance(address,uint256)": "infinite",
						"allowance(address)": "1492",
						"owner()": "1244",
						"renounceOwnership()": "1398",
						"transferOwnership(address)": "24813",
						"withdrawMoney(address,uint256)": "infinite"
					}
				},
				"methodIdentifiers": {
					"addAllowance(address,uint256)": "f3c40c4b",
					"allowance(address)": "3e5beab9",
					"owner()": "8da5cb5b",
					"renounceOwnership()": "715018a6",
					"transferOwnership(address)": "f2fde38b",
					"withdrawMoney(address,uint256)": "f274c897"
				}
			},
			"storageLayout": {
				"storage": [
					{
						"astId": 202,
						"contract": "contracts/FundWallet.sol:FundWallet",
						"label": "_owner",
						"offset": 0,
						"slot": "0",
						"type": "t_address"
					},
					{
						"astId": 22,
						"contract": "contracts/FundWallet.sol:FundWallet",
						"label": "allowance",
						"offset": 0,
						"slot": "1",
						"type": "t_mapping(t_address,t_uint256)"
					}
				],
				"types": {
					"t_address": {
						"encoding": "inplace",
						"label": "address",
						"numberOfBytes": "20"
					},
					"t_mapping(t_address,t_uint256)": {
						"encoding": "mapping",
						"key": "t_address",
						"label": "mapping(address => uint256)",
						"numberOfBytes": "32",
						"value": "t_uint256"
					},
					"t_uint256": {
						"encoding": "inplace",
						"label": "uint256",
						"numberOfBytes": "32"
					}
				}
			},
			"userdoc": {
				"kind": "user",
				"methods": {},
				"version": 1
			}
		}
	}
}